:020000040800F2
:10000000000200209504000831040008ED030008F8
:1000100041040008510400086104000800000000C9
:10002000000000000000000000000000D1030008F4
:100030007104000800000000B503000881040008F6
:1000400031010008310100083101000831010008C8
:100050003101000831010008D1110008D111000858
:10006000D1110008D1110008D11100083101000898
:100070003101000831010008310100083101000898
:100080003101000831010008310100083101000888
:10009000310100083101000831010008D1110008C8
:1000A0003101000831010008310100083101000868
:1000B000591600085F1600083101000831010008D8
:1000C0003101000831010008310100083101000848
:1000D000310100086D0800087308000831010008AC
:1000E000D111000831010008310100083101000878
:1000F0003101000831010008310100083101000818
:100100003101000831010008310100083101000807
:1001100031010008310100083101000831010008F7
:1001200031010008310100083101000831010008E7
:1001300000F0A6B900F0B8BA7047000070B50C46E0
:10014000064600F0A1FA094B094A1D682C44944266
:1001500002D8084A944207D20C234FF0FF3533608F
:1001600000F09AFA284670BD1C60F9E700020020F2
:1001700000000120A44700201946104600F0A0BA54
:100180001946104600F0A4BA132303604FF0FF3065
:100190007047132303604FF0FF3070471323036051
:1001A0004FF0FF3070470023022903608CBF00200E
:1001B00001207047134910B50C68002094FAA4F18F
:1001C0008442B1FA81F108BF4FF0FF310E4C0F4B62
:1001D00054F8211018600E4B09681A68A1F10C043C
:1001E00094420ED022B110790A2804BF0B2010715E
:1001F0000A22012001F8082C31F9061C054A1C606E
:10020000118010BD080400201C04002014040020EC
:10021000100400200C040020092930B503791AD9F4
:10022000092B14D842791A4B00F10C0453F82250D0
:100230007DB12D68C56053F822502C6043F82240F0
:100240000123144A4479A3401468234313600171C5
:1002500030BDC460F2E7092BF9D945790C4B53F84E
:1002600025203AB11468A2420BBF0022246843F84B
:1002700025201460427953F82230002BE7D1012366
:10028000044C03FA02F2236823EA02032360DEE748
:100290001C0400200804002008B5094B1B681A79CB
:1002A000092A02D95B79834205D900F0F8F918B11F
:1002B0000122044B1A6008BDBDE8084000F072B886
:1002C0001004002014040020002408B500F0DCF91C
:1002D000084B094A1B88094D1BB242F82340084AC3
:1002E000214613682868013B1360FFF795FF2C60D7
:1002F00000F054F80C0400205C04002010040020DE
:100300001804002013444FF0773223F0030310B594
:100310001C1F43F8042C620742BF4FF08832A3F140
:10032000080443F8082C4FF0807344E902030D4B96
:10033000002244F80C3C0323022044E90532012347
:10034000224644E907300B2342F8201D42F8043DC1
:10035000013B032BFAD120466FF0020340F8443DE5
:1003600010BD00BFC90200080548064A064B0168D7
:10037000914201D1984201D3181A70470430F6E730
:1003800000000020FEE7FEE700020020EFF30880F7
:1003900070470000004870470000002000F078F926
:1003A00001DFFEE7024A536843F080535360704711
:1003B00000ED00E0EFF3098020E9F00F40F804EDD4
:1003C00002490968086000F003F8000010040020EA
:1003D000FFF7F0FE04480068016801C9B1E8F00FBA
:1003E00081F3098800470000100400200D4B0E4ADD
:1003F0000E496846904203D8984201D9002102E094
:1004000009468D46012104207246024202D1EFF3D3
:10041000088001E0EFF309802DE9F00F6B4600F052
:100420006FF800BF580100200000012000020020EA
:1004300008B50249042000F0A1FC00BF19F400082F
:1004400008B50249062000F099FC00BF06F4000838
:1004500008B50249072000F091FC00BFE0F1000858
:1004600008B50249082000F089FC00BF25F4000807
:1004700008B50249092000F081FC00BFF2F1000834
:1004800008B502490A2000F079FC00BF04F2000818
:100490007047704708B5FFF7FBFF6A46114B1249DA
:1004A000934213D3114A124B12498B4211D30021AC
:1004B000114B124A934211D3FFF7EBFF00F038FCC7
:1004C0000DF02CFEBDE8084000F092BC43F8041B80
:1004D000E6E752F8040F43F8040BE6E743F8041B81
:1004E000E8E700BF00000020FEE7FEE74821010822
:1004F000000200200804002008040020A447002077
:100500002DE9F04F9A464A4B93469A6B8FB003926F
:100510005A6B9F6A0492DA6A044605921A6BDB6B87
:1005200006920793434B88461A68434B9A4202D07F
:1005300042480DF081FFB8F1000F4ED00025404831
:100540000DF07AFF2E463F480DF076FF39463E48C3
:100550000DF0EAFE05993D480DF0E6FE06993C488F
:100560000DF0E2FE07993B480DF0DEFE3A0403D59C
:10057000039939480DF0D8FE3B0603D50499374856
:100580000DF0D2FE36480DF057FF594635480DF0B4
:10059000CBFEB8F1000F1BD133480DF04DFF3146B3
:1005A00032480DF0C1FE6946314BC91A03D54942A4
:1005B00030480DF0B9FE20468268C36801698C4658
:1005C00041698E46AD46514691E8F00F416800689A
:1005D00001BE2949052000F0D1FBD4E90230089082
:1005E0002069D4E906690990606919F4007F0A90CE
:1005F0002248D4E9001208BF04F12005CDE90C23FC
:1006000018BF04F124050B910DF016FF089B0B9900
:1006100000931B48DDE90C230DF086FEDDE909128D
:10062000CDF80090334617480DF07EFE8BE700BFF3
:1006300000ED00E000000020FEE7FEE712F20008F7
:1006400028F20008EDF20008F6F2000806F30008B0
:1006500016F3000826F3000836F3000846F30008F6
:1006600056F300085BF300086DF300089EF30008E2
:1006700058010020C6F30008F3F3000857F2000801
:1006800072F20008AFF20008EFF3108072B6704704
:1006900062B6EFF31080704780F310887047EFF375
:1006A0000580C0B270470000024B034A0349002096
:1006B00000F07CB804020020A90F000820A1070068
:1006C0000A460146014800F07ABC00BF040200203F
:1006D00010B50C460A460146002000F027F82046D7
:1006E00010BD0000142343430D4A70B5D45825684B
:1006F000AA0609D50C2358430A4A616813181E7AC2
:1007000012583140586890472B0748BF6368064B22
:100710001B681BB1BDE87040FFF744BE70BD00BF51
:100720003CF400082005002014040020012810B526
:1007300003D90C49032000F021FB142358430A4B32
:100740001B58D868000705D50A44914203D11A689E
:100750005206FCD510BD11F8010B1C682406FCD50F
:100760005860F2E764F400083CF40008012810B572
:10077000044603D90A49032000F000FB0C2343433D
:10078000084AD35813B1012000F066FD1422064B2D
:1007900002FB04346168207CBDE8104000F086BE96
:1007A00064F40008200500203CF4000801282DE92D
:1007B000F84306460D46174603D92849032000F0A2
:1007C000DDFA0C224FF0140872432548254C81189D
:1007D0004B60FF2308FB0648D8F80C9087500B723B
:1007E0004846032100F0FDFB484600F066FC0B2163
:1007F000484600F02AFC27B10421D8F8080000F090
:10080000F0FB3046FFF7B2FF14235E43002304EBF6
:100810000608A45998F81000E3602361636100F0B2
:1008200029FEB0FBF5F080B2A0609FB198F81120CE
:1008300053B2002B08DB012102F01F0201FA02F281
:1008400009495B0941F8232042F22C03E3600020B0
:10085000BDE8F88342F20803F8E700BF64F400083B
:10086000200500203CF4000800E100E00020FFF734
:1008700039BF0120FFF736BF10B598B1012823D04A
:100880000024174A136923F004031361FFF7FCFEE9
:10089000BFF34F8F30BFFFF7FFFEFCB1BDE8104044
:1008A00000F07EBD0F4B1A6822F00F021A601A6822
:1008B00042F00E021A605A685A60094A012413690C
:1008C00043F004031361E1E7064B1A6822F00F02BC
:1008D0001A601A6842F001021A60EEE710BD00BF0C
:1008E00000ED00E00070004008B5FFF7CDFEBDE868
:1008F00008400020FFF7C0BF002000F059BE0000F4
:1009000038B5044C2568FFF7F7FF2368AB42F9D1EF
:10091000184338BD40050020034B196819B982B24D
:10092000084600F025BE70473805002010B5094A7A
:10093000136843B19C6881688C4207D303D15C681B
:1009400041688C4202D90360106010BD1A461B68D2
:10095000EFE700BF440500202DE9F047294E32683B
:10096000B24602F58032326032681AB9264B1A68F4
:1009700001321A600020254B254C1A681860236844
:1009800084461946234FDFF880E0DFF88C803A6018
:1009900021B1DEF800508E68AE4217D900B1216057
:1009A000BCF1000F10D00021CCF800103AB3C3B155
:1009B0005168586881428CBF194611460846126832
:1009C0001B6882B903603960BDE8F0874D68DAF8CA
:1009D000009005EA08054D45E0D18C4601200968E4
:1009E000D6E71146EAE70BB90260ECE754685D68A8
:1009F000AC428CBF1C46144604602046DFE73B60D7
:100A0000E2E700BF400500203C050020480500202B
:100A1000440500204C0500200000FFFF01232DE9C4
:100A2000F041324F324C3B602368CBB9FFF794FF63
:100A30004FF6FF75FFF760FFA842FBD000254FF08F
:100A40000008236883B9FFF757FF1430854228D97F
:100A5000FFF782FFFFF750FF8542FBD30025F0E749
:100A6000FFF74AFF0546EAE75E68FFF745FF854264
:100A700005D8B3B2834202D91B1A132BE3D82368DB
:100A80005E68FFF739FF854202D8B6B28642F6D8D3
:100A900023681A68C3E901882260D3E903209047DC
:100AA000CFE723686BB15E68FFF72AFF063E14307C
:100AB0008642C6D3002330463B60BDE8F041FFF7D5
:100AC0002BBFFFF719FF8542064602D9FFF744FF07
:100AD000C4E700F114039BB2984204D9FFF70CFF5E
:100AE0008642FBD9F2E74FF6FF76E3E738050020B0
:100AF0004C050020144A1368834210D11B68136010
:100B00001BB158680638FFF707BF4FF6FF70FAE7CA
:100B10009842196801D1116070471A460B46002BA4
:100B2000F6D10A4A13681BB9094A136833B97047EA
:100B300098421968EFD01A460B46F4E798421968B4
:100B4000E9D01A460B46F1E74C0500204805002085
:100B50004405002008B50023054A1846054900F061
:100B600039FDBDE808404FF0FF30FFF7D5BE00BFAC
:100B70001D0A000840420F0070B5084EFFF7C0FE86
:100B800034680546FFF7BCFE8542F7D800222346AD
:100B9000141843F100052046294670BD3C0500208D
:100BA000F8B504460D46FFF7ABFE002323602B1A71
:100BB0001E2B07460DD8ADB2FFF79EFE8542FBD334
:100BC000FFF79AFE8542FBD8D4E90330984700200E
:100BD000F8BDFFF759FD636806460BB9A36813B16A
:100BE0002046FFF787FF1D4BA81F1A68874288BF62
:100BF0000132A2601B68A26865609A4205D8184B52
:100C00001A68030C1B049A4206D02046FFF78EFE9A
:100C10003046FFF741FDDAE7BFB2B8420ED9114BBB
:100C200019461A6812B15768BD4213D222601C607F
:100C30000B689C42ECD1FFF76FFEE9E70A4A1368A4
:100C400013B159688D4202D223601460E0E71A465E
:100C50001B68F5E713461268E4E700BF3C05002077
:100C6000400500204C0500204805002038B504460A
:100C7000FFF70AFD636805460BB9A36813B1204668
:100C8000FFF738FF2846BDE83840FFF705BDC368C9
:100C900070B504460D46CBB1FFF7E8FF1D2D0DD80A
:100CA000FFF72AFE0646FFF727FE801B80B285422B
:100CB000F9D8D4E90330BDE870401847FFF720FEAB
:100CC00029182046BDE87040FFF76ABF70BD0000DC
:100CD0002DE9F04704460E4615461AB9BDE8F0471F
:100CE000FFF7D5BFFFF7D0FC636807460BB9A368D1
:100CF00013B12046FFF7FEFEDFF830A0FFF700FE3D
:100D0000DAF800808146FFF7FBFD8145F6D83618FA
:100D1000454428BF013520466660A560FFF706FE02
:100D20003846BDE8F047FFF7B7BC00BF3C050020E0
:100D300070B50E4E0E4D00F08FFB0E4C0321304669
:100D400000F04FF90321284600F04BF9032120461B
:100D500000F047F9304600F0B0F9284600F0ADF950
:100D60002046BDE8704000F0A8B900BF0214014061
:100D7000050C01400A1001407047000008B50F4BF8
:100D80000C461A689AB9012203281A6003D17146E9
:100D90000B480DF0C9FA21460A480DF0C5FA00F0DB
:100DA0008BFA09480DF0C0FA08480DF0BDFAFFF7BC
:100DB0006BFCFFF7E1FFFFF797FD00BF5005002038
:100DC00076F400087AF40008B5FB000896F40008F1
:100DD00008B500F065FD03480DF0A6FA00F02EFD01
:100DE000002008BDA4F4000808B500F019FAFCE7DB
:100DF0001FB50024FFF748FC0D4B0F221B684FF472
:100E0000807102930B4B019400930B480C2300F06C
:100E100055F80A4B07221B684FF4C061CDE9014326
:100E2000074B084800930C2300F048F8FFF7B6FA88
:100E300018020020E90D0008540500201C020020C3
:100E4000D10D00085406002008B5FFF71DFC094B22
:100E50001B681A79092A07D95A79074B53F82210C7
:100E600011B1096843F82210FFF716FCBDE80840ED
:100E7000FFF798BA100400201C04002038B50B7945
:100E8000092B03D908490320FFF778FF4C7901F1BA
:100E90000C02036813B9CB60026038BD13F8075C1D
:100EA000AC42F8D31846F4E764F40008031F53F883
:100EB000042F9A42FBD0181A704700000F2A2DE920
:100EC000F74F05468B4691469A4633D810F00303F8
:100ED0000FBF0B46C3F10403ED18CB1A343B23F0CC
:100EE00003031AF0080F05EB030419D12D6003E08A
:100EF00012600432A242FBD30193FFF7C5FB01222B
:100F000080462749019B51F8226017B2AEB10132E9
:100F1000212AF8D14046FFF7BFFB6FF08A073BE07C
:100F20002A46E7E701212046FFF776F94046FFF71A
:100F3000B3FB31E06FF015072EE041F822402A465E
:100F4000DDE90C01E780FFF7DDF90E9B154AE3624E
:100F50004FF0FF33C4E9083613681AF0010F03F1AC
:100F600001032060A562C4F830B084F805902671B2
:100F7000C4E90366C4E90566E6611360D2D10B21BA
:100F80002046FFF749F91AF0040FCFD14046FFF78A
:100F900083FB4846FFF780F9384603B0BDE8F08F81
:100FA0005C0400201804002038B5054600F076FBEC
:100FB000044605F1100000F0BBFD204638BDF8B531
:100FC00004460D46164600F11007324629462046D3
:100FD00000F051FB00B1F8BD0121384600F078FD6A
:100FE000F3E7FF29F8B504460E4620F00F0500F0A0
:100FF0000F0727D00421C0F38323023B994001202F
:1010000000F054FA0F21FB1004F0070455F82320D8
:10101000A400A14022EA010245F8232055F823103C
:1010200006F00F0202FA04F40C4345F823400123B2
:101030000020EA68BB40182E0CBF134322EA0303CA
:10104000EB60F8BD4FF0FF30FBE738B50D460421EB
:10105000C0F383230446023B9940012000F026FAA6
:101060000F2024F00F03C4F3C00204F0070453F868
:101070002210A400A04021EA000143F8221053F8F6
:10108000221005FA04F40C4343F8224038BD20F046
:101090000F0200F00F030120D91010B552F82140C3
:1010A000032198409B0003F01C0301FA03F3234241
:1010B00014BFD3689368184010BD012320F00F02BD
:1010C00000F00F0003FA00F010617047012320F0D8
:1010D0000F0200F00F0003FA00F050617047012387
:1010E00000F00F02934020F00F0009B10361704738
:1010F000436170472DE9F84F4FF0010900F00F05EB
:1011000009FA05FA6FEA0A089B462E4C1746226830
:10111000064602EA08022260FFF763FF2A4A0A9B9A
:1011200042F835B002EBC50253604946484600F02C
:10113000BDF90F2005F00C0303F1804303F5803364
:1011400006F0030299689200904021EA000199603C
:10115000C6F383269968023E96400E439E60A368BC
:10116000042D08EA0303A360A26807EA090303FA4F
:1011700005F343EA0203A360E36827FA09F708EAE4
:101180000303E360E26807FA05F747EA0207E7604E
:101190000E4B0EDC063509FA05F51D60636800206C
:1011A00008EA0303636023684AEA03032360BDE897
:1011B000F88F092DD5BF4FF400024FF480721A60EA
:1011C0005A60EBE700040140540C002000E100E00D
:1011D0002DE9F04100244FF001080E4D0E4F6E69CD
:1011E0002A68164008FA04F3334206D06B6107EB15
:1011F000C40357F83420586890470134102CF1D1BB
:10120000064B1B681BB1BDE8F041FFF7CBB8BDE84A
:10121000F08100BF00040140540C002014040020A1
:10122000F8B50C4D2E6816F47F4F11D1F4B200348E
:1012300018BF0124FFF728FA2B6807469E4202D107
:101240002046FFF719FB3846BDE8F840FFF724BAFF
:101250000224EFE72002002038B5094D04462B5C3C
:10126000FF2B03D107490320FFF788FDFFF70CFA96
:101270002B5D0133DBB22B55BDE83840FFF70CBACC
:101280002002002064F4000838B5094D04462B5CA8
:101290001BB908490320FFF771FDFFF7F5F92B5D36
:1012A000013BDBB22B55BDE83840FFF7F5B900BF75
:1012B0002002002064F400082DE9F04F2D4B8BB084
:1012C0001B882D4A2D492E48ADF824300DF02CF8FE
:1012D000FFF74AF80546FFF75DF80446FFF756F8B2
:1012E0002A46009023464FF4007126480DF01CF862
:1012F00001264FF40077DFF89C90DFF89CA0DFF820
:101300009CB025EAE57559F826401CB394F8048092
:10131000226B5AF82830A06A079317440692FFF709
:10132000C5FD069AB4F90610101A22680544059204
:10133000A26A079BCDE90302226B584602926279AA
:10134000019209AAB8F1090F88BF01320092E26A3E
:101350000CF0EAFF0136212ED5D10B4BCDE90175FA
:1013600000930A4A19460A480CF0DEFF0BB0BDE8AC
:10137000F08F00BFD8F40008DAF40008E0F40008A9
:10138000E5F400082DF50008B3F50008B5F50008F0
:10139000B9F500085C040020D8F5000877F50008CE
:1013A00038B5FFF771F900231D4D0446AB6000F01E
:1013B0003BF84FF480636B602B465A6812F00C0FB9
:1013C000FBD11221174A116081221A601A6842F477
:1013D00080321A601A689103FCD55A6822F47C1294
:1013E0005A605A6842F4E8125A605A6842F400326D
:1013F0005A601A6842F080721A601A689201FCD52D
:101400005A6842F002025A605A6802F00C02082A36
:10141000FAD100F015F82046BDE83840FFF73CB996
:101420000010024000200240044B1A6842F0010202
:101430001A601A689207FCD5704700BF001002407E
:10144000044B5A6812F00C0F1EBF1A6822F00102FA
:101450001A6070470010024008B500F017FE4FF008
:101460008051002000F022F8FFF79AFFBDE8084005
:1014700000F027B9034A044B00280CBF1046184659
:10148000704700BF0051250200A24A04044A054BE0
:10149000002818BF1346044A105C5843704700BF29
:1014A00000A24A04005125026BF6000801280AD068
:1014B00004D302280CD0BFF34F8F7047074AD3697B
:1014C0001943D161F7E7054A936919439161F2E73E
:1014D000024A536919435161EDE700BF0010024011
:1014E000012809D002D302280CD07047084AD369DA
:1014F00023EA0101D1617047054A936923EA01019A
:1015000091617047024A536923EA010151617047B2
:10151000001002402DE9F84307460024114A030158
:10152000D558DFF848802E69EB6808EBC0091E40EB
:101530000223A340334209D0EA68214622EA03038A
:10154000EB60D9F8040058F8373098470134042C80
:10155000EED1054B1B681BB1BDE8F843FEF722BF77
:10156000BDE8F88370F6000814040020D40C0020B5
:10157000032910B516DC0D4B00011C1818586368C0
:101580001A4001F10C0300EB83035A600223026945
:1015900003FA01F122EA01020261C3681943C16042
:1015A000002010BD4FF0FF30FBE700BF70F60008D1
:1015B000024B00011B58586A704700BF70F60008C4
:1015C000034B00011A58136843F00103136070477E
:1015D00070F6000801282DE9F84304460E4631D87C
:1015E000DFF87090050109EB0507184997F80C80A2
:1015F00041F8302001EBC0014B604046B968FFF76D
:1016000055FF002359F8055040462B606B607B68FE
:10161000EB62FFF73BFFB0FBF6F00122797B01386C
:101620004BB2002BA8626A6106DB01F01F018A4001
:1016300007495B0941F823202046FFF7C1FF00203E
:10164000BDE8F8834FF0FF30FAE700BFD40C00206C
:1016500000E100E070F600080020FFF75BBF01200A
:10166000FFF758BF82680168531C83604368013BE1
:101670001340C85C7047F8B505460F461646144639
:101680001CB1AA68EB689A4201D1301BF8BD28460C
:10169000FFF7E8FF013C07F8010BF1E7C26830B53E
:1016A00084684368121B9A4208D0C2680468551CBB
:1016B000C5600020013B1340E15430BD4FF0FF30C6
:1016C000FBE708B5002009F0BFFCBDE8084000209A
:1016D00009F0C8BA1FB5184918480CF025FE16497C
:1016E00017480CF021FE174902A806F0D9FE30B1C8
:1016F00015480CF0A1FE002005B05DF804FB02A81F
:1017000006F08DFF01A902A806F000FF0DF1060109
:1017100002A806F03FFF02A806F0ACFF6423BDF963
:101720000410BDF8062091FBF3F10848ADF8041051
:101730000CF0FAFD0120DFE7F5F70008FEF70008DE
:1017400028F8000898F7000840F8000856F8000844
:1017500010B500F003FE431C044605D106480CF00A
:101760006BFE0124204610BD08B10448F7E7044889
:101770000CF062FEF6E700BF3BF700085EF70008DA
:101780007AF7000870B588B005460C461222002191
:1017900003A80CF01AFD0423029340F25B73012DA1
:1017A000ADF81E3007DC21681B480CF0BDFD01259B
:1017B000284608B070BD616803A806F07DFC18B922
:1017C00016480CF0B1FDF2E7022D14D100200546B9
:1017D000064600233246CDE9000301212B4602A82C
:1017E00000F01CFDBDF81E200546616880B10C4864
:1017F0000CF09AFDDBE7A0680CF0D2FA042DADF8EE
:101800001E00E3DDD4E9036528460CF07FFEE0E727
:1018100004480CF089FDCBE790F60008CCF60008F0
:10182000E8F600080DF7000808B5034940F25B70C0
:1018300000F0ACFD002008BD90F7000810B50024B2
:10184000A4B010480CF0F8FD08210F4800F07CFB14
:101850004FF4A07200210D480CF0B7FC0C4B019422
:1018600002930C4B062200934FF4806123460A48F2
:10187000FFF724FB802204A9084807F063F92046FB
:1018800024B010BDA0F70008E40C002024110020B3
:10189000EEF7000829180008240D002088F8000839
:1018A00008B507F08EF8FFF755F904F089F904F050
:1018B000B9FA01F033F906F071F901F013FA00F00A
:1018C0000DF800F077F800F0AFF800F01FF800F026
:1018D00041F8BDE8084000F0CBB8000013B5074C54
:1018E0000749204609F0AEFD0094064B02224FF452
:1018F0008061054803F0C2FF02B010BD64160020ED
:1019000014F900082CF900086412002010B50B4CE3
:101910000B49204606F042FD002805DABDE81040DC
:10192000002108480CF000BD0748084B4460836064
:10193000074BBDE81040C36007F0C8B8A4160020EC
:1019400074F9000836F90008BC16002068F9000890
:1019500030FD000870B5104D1049284606F0A0FD76
:10196000002806DABDE8704000220D490D480CF051
:10197000DBBC0D4C0A4E0D4B2046E3606560A66053
:1019800007F0A4F80A4BC4E90556E36104F110001E
:10199000BDE8704007F09AB8CC160020B4F90008F2
:1019A000F5F7000888F90008D41600203CFD00086F
:1019B00048FD00082DE9F341174C184D184FDFF88A
:1019C000648004F13006297A2B6804296560A360DD
:1019D00003D001F0EF03082B1BD1E7606868FFF725
:1019E00000FB6B7A13F0060F08D003F00403ADF888
:1019F0000030E36869465B68284698472046103403
:101A000007F064F8B44205F10C05DCD102B0BDE882
:101A1000F081C4F80C80E1E7F4160020BCF900085E
:101A20006CFD000878FD000810B50B4C0B492046F2
:101A300006F0B8FB002805DABDE810400021084890
:101A40000CF072BC0748084B44608360074BBDE84C
:101A50001040C36007F03AB8241700203CFA000891
:101A600000FA00083017002032FA000844FC000891
:101A700038B5104D1049284606F041FE002805DA19
:101A8000BDE8384000210D480CF04EBC0C4C0D4B0D
:101A90000D4AA360C4E905530C4B20466560E26023
:101AA000E36107F013F804F11000BDE8384007F0D7
:101AB0000DB800BF4017002084FA000844FA00085F
:101AC0005817002078FA000854FD000860FD00084F
:101AD00070B504460D46FEF7D7FD236806463BB9B0
:101AE0004FF0FF332360FEF7D7FD0125284670BD78
:101AF000C5B10E4B02211D682846FEF78DFB2368F9
:101B000001330AD105F10C0323600023EB6030465A
:101B1000FEF7C2FDFEF746FCE7E729462046FFF741
:101B2000ADF9F4E7FEF7B8FDE0E700BF10040020D0
:101B300070B50446FEF7A8FD256806461DB9BDE848
:101B40007040FEF7A9BD6B1C02D100232360F6E7AD
:101B5000284650F80C390B212360FEF75DFB236803
:101B600013B94FF0FF33236015F8074C3046FEF7EA
:101B700093FD2046BDE87040FEF78EBBF8B50546E4
:101B80000E46FEF781FD3B4B3B4A1B8807461BB2C6
:101B900052F823305A6A002A53D0D3E90642A242AF
:101BA0004FD0621C9A611A6A144046B95A6932B918
:101BB000621C04D13846FEF76FFD2046F8BD002CAC
:101BC00043DB5A6A02EBC40292E8030085E8030093
:101BD0005E69002E3BD03268002C5A610DDBD3E9E0
:101BE00007259969586A511A8D42B1BF4FF0FF32EB
:101BF000511C2A40D96100EBC205736893E80300C9
:101C000016F8083C85E80300052B18D000230B21AB
:101C10007360A6F10C00FEF7FFFA16F8074C384681
:101C2000FEF73AFD0E2C23D82046FEF735FB1FE0C9
:101C30001249FFF7A3F83846FEF72EFD18E00F24EF
:101C4000EDE74FF0FF34002EB0D01D61C0E7002C4F
:101C5000F1DA18460321FEF7DFFA3846FEF71CFDDD
:101C6000FEF7A0FB064B1B681879C0B20328DFD033
:101C70000124A2E70C0400205C04002064F40008A6
:101C8000100400200346D0E9072010B59C69141BFE
:101C9000A04201DA002010BD541C0240DC61F9D4DE
:101CA000586A00EBC20203C982E803001A89184689
:101CB0006FEA42426FEA52421A8100F09DF9012018
:101CC000E9E700002DE9F8431E462A4B074653F882
:101CD0002140294B91461B8803803CB93046FEF7D2
:101CE000DBFC4FF0FF352846BDE8F8832379032B52
:101CF00037D0224B01462046D3F80080FFF7C2FFC1
:101D0000054650B13046FEF7C7FC98F80430052B65
:101D100001D1FEF747FB0125E5E7B9F1000F03D13B
:101D20003046FEF7B9FCDEE798F804304046052B54
:101D30000CBF05210421C8F81070FEF76DFA04F1FC
:101D400014004146FFF79AF8238920466FEA43437F
:101D50006FEA5343238100F04FF93046FEF79CFCB5
:101D6000D7E7236903C883E803000B212046FEF769
:101D700053FAF2E75C0400200C0400201004002059
:101D800038B50446FEF780FC074B21461B88054604
:101D90002380064B1868FFF775FF04462846FEF7B8
:101DA0007BFC204638BD00BF0C040020100400203E
:101DB00008B50F4B53F82130B3B1212202801A79B4
:101DC000032A0BD103C81A6982E8030018460B21C5
:101DD000FEF722FA0120074B186008BD014618469D
:101DE000BDE80840FFF74EBF4FF0FF30F5E700BFFA
:101DF0005C0400201404002070B504460D46FEF774
:101E00004EFC28B129462046BDE87040FFF7D0BF00
:101E1000094B1B881BB2AB4204D12046BDE8704081
:101E2000FFF7AEBFFEF730FC2946034601222046ED
:101E3000BDE87040FFF746BF0C04002070B50446B3
:101E40000D46FEF72CFC064628B129462046BDE883
:101E50007040FFF7ADBF0A4B1B881BB2AB4204D1E9
:101E60002046BDE87040FFF78BBFFEF70DFC324601
:101E7000034629462046BDE87040FFF723BF00BF58
:101E80000C0400202DE9F041124F06463B880C4619
:101E90001BB29342154603D10F490320FEF76EFF94
:101EA000FEF7F2FB80463A880C4B12B253F82270D0
:101EB00005213846FEF7B0F996E803003C61434639
:101EC00084E80300012229462046BDE8F041FFF7DF
:101ED000F9BE00BF0C04002064F400085C0400207C
:101EE00070B504460D46FEF7CFFBB4F90020114B48
:101EF000064653F822401CB90F490320FEF73EFF67
:101F00002379052B04D0FEF7C7FB4FF0FF3070BDDF
:101F1000236995E8030083E803000B212046FEF7C0
:101F20007BF964793046FEF7B7FB2046FEF7B4F93B
:101F30000120ECE75C04002064F400080021FFF7B6
:101F40001DBE0121FFF71ABE08B5074B4A1E1B68CC
:101F50001140586203D005490320FEF70FFFC3E983
:101F600006111A6208BD00BF1004002064F40008C6
:101F70000C4B70B505461C68FEF786FB23890646A8
:101F80001D420BD1204625610621FEF745F930465A
:101F9000FEF782FBBDE87040FEF704BABDE8704072
:101FA000FEF77ABB1004002038B505460C46FEF754
:101FB0006BFB2B881C4023EA04032B80FEF76CFB91
:101FC000204638BD034B01461B6803F10800FFF7AC
:101FD000EBBF00BF1004002038B50546054B1C6858
:101FE000FFF7C6FF294604F10800BDE83840FFF7B7
:101FF000DBBF00BF10040020037910B5062B048A54
:1020000003D0072B0CD0002408E003891C402CB11E
:102010000B21FEF701F90122054B1A60204610BD85
:10202000038934EA03030CBF01240024EFE700BF57
:102030001404002070B505460C46FEF725FB2989DF
:102040002A792143062A064629812B8A06D0072AA7
:1020500015D03046BDE87040FEF71EBB1940002980
:10206000F7D028460B21FEF7D7F80122064B304661
:102070001A60FEF711FBBDE87040FEF793B98B4381
:102080000CBF01210021EAE7140400200C4B0D4A8B
:1020900010B59A60102200210B4C83F82220DA77C9
:1020A000601801313C2980F80023F9D11A6942F007
:1020B00010021A615A6942F400725A6110BD00BFE1
:1020C00000ED00E00000000800E100E01A4B2DE9FF
:1020D000F0471A4D16461A68194B287003200F4610
:1020E0001A610424FFF76EFFDFF86480DFF8649064
:1020F000DFF864A043463A464946504605F092FB55
:1021000010490F48FEF7C3FD0320FFF765FFC30723
:102110000DD50B48FEF7AAFD0B4B1C68FF232B7057
:1021200016B10A48FFF704FD2046BDE8F087013CE0
:10213000E0D16FF00304F1E7100400202402002036
:10214000381C0020C0E1E400941900204C1C002041
:102150007C170020381A0020981900200221FFF770
:1021600069BF000038B5054C00202568FFF720FA4C
:102170002368AB42F8D1184338BD00BF40050020AA
:1021800030B4144C2478844221D149B112480488D7
:102190001248455C0844417841EA0521A14216D124
:1021A0000F4912B10D48825C72B933B930BC0B6073
:1021B0000C4B01211869FFF73DBF084AD05C1A4457
:1021C000537843EA0023F1E76FF00103EEE730BCF8
:1021D000704700BF24020020501C002094170020EC
:1021E00094190020381C0020F72808494FF00102FC
:1021F00003D883180B7010467047033080B2030A6F
:1022000088700A704B700320704700BF381A002096
:1022100001210148FFF75CBC4C1C00202DE9F84F60
:10222000DDF8288005460C469946174642B11BB199
:102230000B9B33F0700303D044490320FEF79EFD4F
:10224000434EFFF7E5FFF38A002B7CD11822294685
:1022500030460BF096FF002C0CBF4FF0000B4FF0F8
:10226000040B0FB14BF0080BDFF8ECA0394CDAF897
:1022700000000CF04BF9042262700122E27022711E
:10228000682284F802B0DAF800B0851D6271584601
:1022900025700CF03BF959460246A01D0BF071FF6A
:1022A000002F47D038460CF031F9C428834604D8B3
:1022B00008F10403B3F5007F06D900236FF002058F
:1022C000F3822846BDE8F88F294600220620FFF752
:1022D000FDFE054610B10023F382F2E70BF1020B7D
:1022E0005846FFF781FF07220B9B22548246221893
:1022F0008344384653700CF009F90AF10203024690
:102300003946E0180BF03DFF2A4659460820FFF7F2
:10231000DDFE05460028DED108F101052846FFF75D
:1023200063FF0923054423540130424649462044B3
:102330000BF027FF294601220520FFF7C7FE0546BF
:102340000028C8D1BDE74FF0FF35BAE764F40008B4
:102350007C170020381A00207817002008B5094B98
:10236000DB8A5BB1FFF754FF02211820064B0122E4
:1023700019705870BDE80840FFF7A8BE4FF0FF3055
:1023800008BD00BF7C170020381A00202DE9F04F4F
:10239000054693B008460C460CF0B8F8C32803D99C
:1023A00085490320FEF7EAFC1222002107A80BF062
:1023B0000CFF04230693814B814A1C60814C824BA5
:1023C00006A9E3600023814813601A46ADF82E5039
:1023D000236105F04DF90028029406DA29467C486D
:1023E0000BF0A2FF13B0BDE8F08FFFF7BBFE794FF3
:1023F0008146BB46784E0DF13008CDF800803B4653
:102400004FF400727449714805F09CF9002805DA10
:1024100074307FD071480BF087FFE3E7012879DD46
:10242000022835781AD1012DE5D00124ADB28542BC
:10243000E1D8A042DFD9335D053B182B6AD8DFE82D
:1024400003F0151C69216969262B8269696969692C
:1024500087698C91699C6969AB69B000012DE4D1F1
:102460007478B57845EA04250324E0E700230222C6
:1024700019460520FFF784FE4CE0002306201A468B
:102480001946F7E7002308201A461946F2E7022307
:10249000062204210B20EDE704F10608454539D357
:1024A00040F6075204920022A31CF118F35CADF829
:1024B00014208DF816200DF112000422039391F8D8
:1024C00001A00BF05EFE32195278039B12F0DD0F73
:1024D00006D003238DF816300722414B04A948E0AB
:1024E00040494AEA032A0F68002F63D03B895345CD
:1024F00027D1930605D53A4B072204A9334805F0A6
:1025000091F92C1BA21F14BF06EB08011146FB68B2
:10251000381D9847FFF726FE334AA0EB0903934284
:10252000044643D92E4BDA8A42B141F2026212A923
:1025300021F8382D2548022205F074F9A1465F469E
:1025400059E73F68D0E70023062204210D2091E7D8
:1025500003230722052113208CE7002302211A46BA
:10256000152087E741F2027312A921F8383D0222B3
:102570004346164805F056F9CCE71C4B1B78182B40
:10258000C8D10023164A0121D382194A1360029B45
:102590001869FFF74FFDBDE700231B201A461946B7
:1025A00068E700231D201A46194663E7094F4F4488
:1025B0003F1A20E702238DE764F400087817002013
:1025C0004C1C0020381C00205D21000898190020B8
:1025D0009CFA0008002A751594170020CBFA000811
:1025E0007C170020341A0020FF29751524020020D2
:1025F00094190020002103F0E3BB70B51E46CBB256
:10260000002115460246084602F0E4FF044620B9C0
:102610002846FFF7EFFF204670BD43681E71056036
:10262000F9E7000010B50B680C4618B912490320F1
:10263000FEF7A4FB4A68B0F8B010518000224BB9F5
:10264000B0F89C30934209D22046BDE810407A2170
:1026500003F0B6BB99681B680A44F0E7234640F2D2
:1026600002220649012002F024F820B92046BDE8E4
:102670001040FFF7BFBF10BD64F400080000FFFF6B
:102680002DE9F8430D4612C906460A460023002AE2
:1026900037D15BBAA380A379FF2B02D1A9BB3B231F
:1026A000A371E3791BB9002E3AD14023E37104F101
:1026B00008071022284938460BF054FD814670B9AE
:1026C00004F118082549102240460BF04BFD014645
:1026D00048BB102238460BF078FD0123E3752C46E9
:1026E00094F91030022B01D1206848BB29462046BE
:1026F00003F039F9002801DA023027D10120BDE8C2
:10270000F883906812680344C1E70B7C023BDBB29C
:10271000022BC4D8124AD35CFF2BA371C1D1BEE7F0
:1027200096F8AE30C2E741464A46304602F082FC97
:1027300001460028D3D0102238460BF022FDCEE708
:1027400003F04CFB10B120600446C9E72846FFF7B0
:1027500051FF0020D3E700BF11FC0008F1FB000887
:10276000F6FA000880B5A0B01022002105A80BF0F1
:102770002CFDBC4B08210693BB4B10A81B8844F6CC
:10278000C076ADF82030FFF7DFFB05A9022003F08B
:1027900093F840F20523B54FADF80E3044F6C374FC
:1027A00001A8FFF7CEFBBDF80610A1421CD8B1422C
:1027B00027D240F20223994200F0ED8009D840F27E
:1027C00001239942ECD1029D25BBA9490320FEF7C4
:1027D000D5FAB1F5017FE3D86FF0850303A901A80D
:1027E0000493FFF77DFBD9E744F6CF7399420CD8E9
:1027F00044F6CB73994204D2A1F59F43453B042B89
:10280000CED8029800F044FEC8E7A1F59F43513BA3
:10281000012BF5E74FF0FF31284603F0B5F820B162
:102820004368B3F9020002F0E8F86B6880463BB1F8
:10283000AA68272A04D91B7803F0F003602B01D083
:1028400028460DE0284603F0C9FA04460028F7D0D0
:102850000222282103F0EAF90023237418B9204644
:10286000FFF7C8FE9AE7D0F8049099F8073023B92B
:102870007421204603F0A4FA90E7B9F8041099F8FF
:10288000065049BA89B209B93B2DE8D1844268D0D3
:10289000A36820468B4264D903F02EFA09F1180A86
:1028A0001022744950460BF05DFCD8B108227249E1
:1028B00050460BF057FC48B199F81830FF2B08D15F
:1028C00099F8193003F00F03022B02D1B8F1000F71
:1028D00056D1504602F088FC8046B0FA80F040099C
:1028E0000028BCD1292D51D03A2D4DD0112D0CBF2F
:1028F0000423002323742946022003F020F8002833
:1029000001DC3A2D44D10121204603F047FA4FF073
:102910000109234640F20122524994F9100001F0C6
:10292000C8FE10B92046FFF765FEB9F1000F10D0C0
:102930003A2D03D10121204603F030FA234640F21C
:1029400001222946022001F0B4FE10B92046FFF70B
:1029500051FE3A2D7FF422AF2146404609F0C6FED3
:102960001CE7002283681A4490F91030022B02D031
:1029700000680028F6D1283A8A428FD2162178E7DB
:10298000504602F031FCA8E70323B3E70223B1E786
:102990004FF00009BDE7029D95F9103001331DD1BC
:1029A0006C68002C3FF411AFB4F9020002F025F876
:1029B0008146284694F8048003F010FA0146002866
:1029C0003FF43EAF02F0E8FF054608F03F0895F9F6
:1029D0001030022B06D0162128464BE74FF0000896
:1029E000C146F4E768681022394618300BF0BAFB8C
:1029F0000028F0D0284603F0F1F9044600283FF4FF
:102A00001FAF45682B7EFF2B38D1B9F1000F12D1D3
:102A100001F0E6FF00283FF422AF484601F0C4FF72
:102A200000212246814643460846FFF7E6FD04465C
:102A300000283FF4B3AE21464846FFF721FE0028A8
:102A40003FF4ACAE002148F0400308462246FFF7B1
:102A5000D4FD014600283FF4A1AE4846FFF7E2FD51
:102A60009CE600BF0000FFFF0C04002011FC0008E2
:102A700064F40008F1FB0008E1FB00081835284663
:102A800002F0B2FB10228246224928460BF06AFB74
:102A900010B1BAF1000F17D021465046FFF7F0FDF4
:102AA00000283FF4DCAE204602F08DFF00287FF4C2
:102AB000D6AE234640F201221749022001F0F9FD6B
:102AC00000287FF46BAECAE609AB22464946284689
:102AD00000F074F90028FFF661AEBDF83C00C0F3C9
:102AE000041001F08AFF054600283FF46EAE21462F
:102AF000FFF7C6FD00283FF451AE9DF83E10434657
:102B000022460DA8FFF779FD014600283FF446AEA6
:102B10002846A3E7F1FB00080000FFFF1FB50A4CA1
:102B2000B4F9003063B9094A4FF48061CDE901324C
:102B3000074B0422009307480823FEF7BFF92080C3
:102B4000B4F9000004B010BD52200020F9FA0008CA
:102B500065270008521C002008B5022102F014FF6E
:102B600078B143681BB908490320FEF707F982686A
:102B7000272AF8D91A7802F0F002602AF3D1184611
:102B800008BD0346FBE700BF64F400082DE9F843E5
:102B90000C4D99460C4B074688462846114614466C
:102BA000B3F9006009F09CFC0023A4F80A80C4E992
:102BB0000039E760268121462846BDE8F84309F040
:102BC00065BC00BF6C2200205220002010B50822F6
:102BD000094904460BF0C6FA48B12378FF2B08D107
:102BE000607800F00F00831E5842584110BD01204C
:102BF000FCE70020FAE700BFE1FB00087FB50368AF
:102C00000446ABB193F83620120711D501461022C5
:102C100068469D8E0BF0B5FA2046002400F024FF94
:102C20002646C5F30415204601F074F8044608B999
:102C300004B070BD20680028F5D0838EC3F3041360
:102C40009D42F0D16946043005F025F90028EAD00C
:102C5000226884F8346092F83630204623F040032E
:102C600082F8363001F02EF8DDE72DE9F041069CC0
:102C7000804617461E460D4691B191F8AF30092B9C
:102C80000ED10146102230460BF07BFAB5F8B03079
:102C90001B0133830023B37601263046BDE8F08163
:102CA00024B13146204600F077FEF5E7324629464A
:102CB000404601F03BF906460028EED15DB1B5F97A
:102CC000B0100222404600F0EDFD014628B938461A
:102CD00003F076F8E1E72146F3E7002FDDD0762117
:102CE000F5E7000038B50A4C01210A48FEF7F0FE6E
:102CF000A16929B10D68204609F0F2FB2946F8E7E1
:102D000000F046FDBDE838400248FEF711BF00BFA5
:102D10006C2200208822002030B5044685B018B906
:102D200023490320FEF72AF801F0E8FE4FF47A73F6
:102D3000C4F89430012384F89A30002394F8AF202B
:102D400084F89830042A12D10193039305238DF857
:102D500004300DF10203029302230822ADF80C3077
:102D60002368ADF802201B6901A920469847002579
:102D7000104984F89950204602F04DFAA84204DA2E
:102D8000204601F0C2FE05B030BD402220460A496F
:102D900001F034FA4FF47A71284605F01FFE04F171
:102DA0006402034644F6C3712046FFF7EFFEE7E7EF
:102DB00064F40008C1FB0008E1FB00082DE9F043C2
:102DC0000C468DB0074608461646994601F096FE19
:102DD00001215248FEF77CFE8CB3B4F9B01038469E
:102DE00000F00EFD804600283DD0858EC5F3041509
:102DF0003846FFF7EBFE48B945B1204601F085FEA5
:102E0000284601F0FAFD044601F078FE002C7CD043
:102E1000CDF800804B46324621463846FFF725FF65
:102E200000280CBF6FF0750500253C48FEF780FEBA
:102E3000204601F06AFE28460DB0BDE8F083214629
:102E4000CDE795F834305A070ED5EB8EDB070BD55E
:102E5000291D384605F034F895F83530834203D8FB
:102E60002B689D8EC2E70546284600F053FF0546B5
:102E70000028E6D13846FFF7A9FE0028B8D103AAFA
:102E80003146384600F096FF051E34DB10222449F7
:102E900007A80BF067F928B96DBB1022394607A8BF
:102EA0000BF06FF974B1B4F9B020BDF82E309A422E
:102EB00002D0204601F029FEB4F9B020BDF82E3032
:102EC0009A4207D0BDF92E0001F097FD044601F0AB
:102ED00015FEC4B1B4F9B01007A800F091FC4B4640
:102EE00000903246214607A8FFF7BFFE002808BF22
:102EF0006FF0750599E71EB17221304602F060FF50
:102F00006FF0710591E72146E6E71EB17621304664
:102F100002F056FF6FF0750587E700BF882200209A
:102F200011FC00082DE9F04F0E4687B015461F46EC
:102F3000044618B9B9490320FDF720FF01F0DEFD72
:102F40000121B748FEF7C4FD2B78872B00F03981AB
:102F5000882B00F0F281862B40F04E8106F10809A3
:102F60004846FFF733FE002800F04681F379FF2B37
:102F700040F042816B78002B40F03E810F2F40F2F1
:102F80003B81A7F1100305F1100842469A460293CF
:102F9000BAF1000F45D1EF88B4F9B010BBB2002BE5
:102FA0004BD0484600F032FD7FBABFB281460028C0
:102FB00000F022814FF47A735F43021D3B4644F6D2
:102FC000CD71FFF7E3FD2B790BB184F8AE30EB68E0
:102FD00013B11BBAC4F89430B9F1000F0FD0237CA1
:102FE00013F0EF0F03D004F1120000F0DDFF637C5B
:102FF00013F0EF0F03D004F1220000F0D5FF029B85
:103000004BBB04F164052946864809F069FA2A4653
:1030100044F6C3712046BB0803EB4303FFF7B6FD3C
:10302000EAE05745C0F0E8805378002B00F0E480D8
:10303000DB00AAEB030A1A44AAE7484600F044FD65
:10304000814628B1FFF7DAFD4FF0FF37D146BAE7E6
:103050004FF0FF37B7E798F80030032B2DD009D891
:10306000012B13D098F80130029ADB00D21A029299
:103070009844C4E7052B10D0222BF3D141462846B3
:1030800001F09CF8874228BF0746EBE743462A46F3
:103090003146204600F0E4FAE4E798F80130012BCD
:1030A000E0D12B78862BDDD1D8F804301BBAB3F5EC
:1030B000A06FD7D3A4F89C30D4E798F80130D8F8A3
:1030C0000490D8F808A0042B99FA89F99AFA8AFA98
:1030D00005D04FF0FF394F4528BF4F46C2E72B7848
:1030E000862BF6D108F1100B5846FFF76FFD00282C
:1030F000EFD1D145EDD398F803305B0605D598F8AC
:1031000002205946204601F079F898F90330002B47
:10311000DFDA98F802300393D8F80430E3B999461F
:1031200013E099F8343058070FD599F83530039AE1
:103130009A420AD1594609F1040004F0C1FE039BEA
:10314000834202D8484600F077FE484600F0E2FD90
:1031500081460028E5D1BCE7B9F1FF3F08D0324BEA
:10316000994596BF4FF47A736FF0010903FB09F993
:10317000BAF1FF3F08D02C4B9A4596BF4FF47A73B3
:103180006FF0010A03FB0AFAB4F9B0004B46CDF820
:1031900000A0039A594600F057FE002899D098F8ED
:1031A0000320110642BFC38E43F00103C3865306BA
:1031B00042BFC38E43F00203C386D14528BFD14628
:1031C00089E7F379FF2B17D16B78ABB9172F13D998
:1031D0002B7AFF2B10D006F108091022134948461C
:1031E0000AF0C0FF88B105F1080B5946204601F0EE
:1031F00009FF031E02931DDA0948FEF799FC2046D9
:1032000001F083FC07B0BDE8F08F0D22084906F1FC
:1032100018000AF0A7FF0028E5D0EDE764F40008E5
:10322000882200206C2200203789410011FC000810
:1032300001FC0008A7F1180805F1180A5146434699
:1032400073B910227649484603930AF08BFF039B1B
:1032500078B900934A462146584601F02DF9CBE74C
:103260009F42C9D34A78002AC6D0D2009B1A114483
:10327000E6E7D4F8A030DF0705D40322B4F9B01094
:10328000484600F00FFBB8F1000F14D1029B234415
:103290001B7C9D0649D5B4F9B010584600F0B0FA31
:1032A000074618B190F83630D80715D400210846E3
:1032B00002F086FDA0E79AF80030012B05D15346B5
:1032C0002A463146204600F0CBF99AF80130DB005F
:1032D000A8EB03089A44D6E7337EFF2B1CD104F1F8
:1032E000A40194F8AC2004A80AF04BFF94F8AC10A9
:1032F00091B1424604A801F077F8054608B9414665
:10330000D6E740212A46584601F00BF80646002829
:1033100061D101462846CBE760214546F2E74146A8
:103320003046C5E729464046C2E7337ECDF80080E7
:10333000A3F1FF014B424B418CE7F379FF2B7FF464
:103340005BAF6B78002B7FF457AF172F7FF654AF2E
:103350002B7AFF2B3FF450AF337EFF2B03D12B7919
:103360005A063FF549AFA7F1180905F1180841467B
:103370004A462ABBB4F9B01005F1080000F040FA43
:10338000074600283FF438AF90F83630DB077FF56A
:1033900033AFB9F1000F3FF42FAF98F80030212B75
:1033A00007D1CDE9008743462A463146204600F042
:1033B00067FE98F80130DB00A9EB03099844E8E7C1
:1033C0009742FFF419AF4B78002B3FF415AFDB00A9
:1033D000D21A1944CDE74A46002109F067FA80461F
:1033E00000289CD0FF224368DA7100231A46194650
:1033F000184602F0EFF80546002893D04368B4F869
:10340000B0204FF47A715A80C0F80080002005F097
:10341000E5FA07F12402034644F6C2712846FDE5A9
:1034200011FC000838B5044601F068FB44F6C3718E
:10343000204600F063FD94F8983042F21075022B9C
:103440000AD94FF47A62033B02FA03F31D444EF6A5
:1034500060239D4228BF1D46A84212D90B49204631
:1034600001F0A2F894F8983004F16402092B9CBF93
:10347000013384F8983044F6C3712B462046FFF799
:1034800085FB2046BDE8384001F03FBBD1FB00087A
:10349000F8B50D46044601214F48FEF719FBA5F586
:1034A0009F4142390D2914D8DFE801F007181313A2
:1034B0001313131313131C8E1392234640F202228C
:1034C0004649022001F0F5F818B90921204602F01A
:1034D00077FCBDE8F8404048FEF72ABB2046FFF7DE
:1034E000A1FFF6E72368988EC0F3041001F085FA77
:1034F0000546FDF741FB00234FF47A720AF0CEFA3D
:103500000646284601F0FAFAA36B9E422ED304F138
:103510001401334805F11206271D08F0E1FF394672
:10352000304604F0CDFC94F83530834203D8314660
:10353000284601F0C7FE05F122063946304604F060
:10354000BFFC94F83530834203D83146284601F059
:10355000B9FE94F83430204623F0040384F8343064
:1035600000F0B0FB284601F0D0FAB2E7E36B9E42D0
:10357000F8D3271D394605F1120004F0A1FC94F898
:1035800035303946834298BF2B7C05F122009EBF1F
:1035900023F01F0343F008032B7404F091FC94F80C
:1035A000353004F11402834298BF6B7C44F6CC7131
:1035B0009EBF23F01F0343F008036B74A36B2046E8
:1035C0009B1BFFF7E3FACDE72046FFF717FB80E7E9
:1035D000204600F0E9FC7CE7882200200000FFFF85
:1035E0006C220020F0B50C4685B0074615461E46F5
:1035F00000F088FA1CB919490320FDF7BFFB1DB381
:103600000068B4F9B020838EC3F304139A421BD12F
:103610003146043004F03FFCB0B1D4F8A030DB07F1
:1036200010D502AB94F8AC2004F1A401204601F0BF
:1036300069FF082806D1002302AA0F21184603F0CB
:10364000E9FF10B905B0F0BD0020009033462A46CE
:103650002146384600F0D2FEF4E700BF64F40008CB
:103660002DE9F04117469846054618B91E49032032
:10367000FDF784FB01F10806B0F9B010304600F008
:10368000BFF8D5F8A0300446D907EFD5414695F8E4
:10369000AF0004F069FE00281EDB1CB194F8363040
:1036A000DA070ED40322B5F9B010304600F0FAF86C
:1036B000044688B13B78872B03D1838E23F008031F
:1036C000838694F83630DB0706D53B78862B05D108
:1036D000A38E43F00803A386BDE8F081872BFBD0BF
:1036E000A38E23F00803F6E764F4000830F9081FFE
:1036F000FEF75EBB38B5054618B9012000F00100A1
:1037000038BD0C1D1022054920460AF02BFD00286B
:10371000F3D02146284604F0BEFBEFE711FC000879
:1037200008B590F8361021B938220AF04EFD012074
:1037300008BD0020FCE7000070B5064610460D46A7
:103740001446FFF7EDFF26B110223146201D0AF086
:1037500018FD1F2D03D905490320FDF70FFBA18E8E
:1037600021F4F87141EA0511A18670BD64F40008E6
:10377000064A13683BB1186883420BBF00230268F6
:1037800013601A6070471846704700BF6822002017
:103790000149024808F0C8BEED3600086C2200203E
:1037A00070B50C4C0646A38E0D46C3F30413994224
:1037B0000AD12146FFF79EFF30B13046054A29461F
:1037C000FFF7BAFF034870BD94F83630002BF4D0F1
:1037D0000020F8E78C22002028B13830064B9842B0
:1037E00003D3002070470548F8E790F83620002AF8
:1037F000F8D13830F3E700BFC42200208C2200202B
:1038000008B518B90B490320FDF7B8FA0A4B93F82D
:1038100036205AB19B8EC3F3041313B109B19942F8
:1038200004D10146054804F036FB08B9002008BD64
:103830000148FCE764F400088C220020902200205C
:103840007047000010B590F8363000F1240123F0E5
:10385000010380F836300446104808F041FE104A53
:10386000116821B10B689C4206D1FFF781FF204609
:10387000BDE81040FFF754BF0B461B681868844230
:1038800002D09942F9D1F2E7002BF0D021681960FB
:1038900011688C4208BF1360E9E700BF6C2200206A
:1038A000682200202DE9F0478846074618B93849B4
:1038B0000320FDF763FA02F00706331F022BF6D947
:1038C000FFF76EFF002845D1FFF752FF054600289D
:1038D0005BD0DFF8C0A00446D14694F8360030F043
:1038E000010027D1A38E03F4C0632BBB2046FFF752
:1038F000A9FF414622463846FFF71EFFA38E214608
:103900003343A386012384F83630DAF80030ABB1B4
:103910001B682360DAF800301C60C9F80040B1B9B8
:10392000FFF726FF85420446D7D1D9F800303BB9CE
:103930002D600AE00021E8E70146E6E72460ECE7B5
:103940001B682B60D9F800301D60C9F8005008468C
:10395000BDE8F08790F83630DA0708D4828E43F05D
:10396000010322F007023243828680F83630036872
:103970003BB9084B1A6832B1126802601A681060CD
:1039800018600146E3E70060FAE70146DFE700BFA1
:1039900064F400086822002070B50C46054600B1AA
:1039A00019B918490320FDF7E9F9011D1022204635
:1039B0000AF0E7FBAB8E2383A88EC0F3041001F05E
:1039C0001CF808220646104920460AF0CBFB38B105
:1039D0002378FF2BE5D1637803F00F03022BE0D1AE
:1039E000002EDED0D6F8A03005F10C01DB0704F183
:1039F0001002D6D596F8AF0004F09CFC0028A8BFB2
:103A0000A07670BD64F40008E1FB0008F8B5154C21
:103A1000074625680E46E5B1AB8EC3F30413994201
:103A20001DD1291D04F037FAC8B195F8363043F09E
:103A3000080385F836302046F8BD31463846FFF792
:103A40007BFE226892F8363043F0080382F8363065
:103A5000F1E7FFF7A5FE024620600028EDD1002027
:103A6000EAE700BF5420002010B50446006860B1AA
:103A700090F8363023F0080380F83630FFF750FE18
:103A80001422002120460AF0A0FB034B1A68A24230
:103A900004BF00221A6010BDC422002028B11430D7
:103AA000074A904203D3002070470648F8E70368AE
:103AB0001BB193F83630002BF6D11430F1E700BF7C
:103AC000682000205420002038B50C4C256885B1B2
:103AD000AB8EC3F3041399420BD1291D04F0DBF91B
:103AE00040B195F836301B0705D405490320FDF792
:103AF00045F9002038BD2046FCE700BF54200020D7
:103B000064F4000810B5124C216831B10B689B8E2B
:103B100003F00703013B012B0DD80020FFF7BEFF88
:103B200058B90846FFF7BAFF01B110B90020FFF7F6
:103B3000B5FF20602168084610BD03689B8E03F026
:103B40000703013B012BE9D920600146F3E700BFE1
:103B5000C422002038B50C46054610B1036803B1F5
:103B600019B913490320FDF709F910220021204655
:103B70000AF02BFB00230F4A84F820301268AA4277
:103B800008D12B689B8E03F00703013B012B94BFE8
:103B900000230123102284F821302968A018043161
:103BA0000AF0EFFA2B689B8EC3F30413638438BDCD
:103BB00064F40008C42200202DE9F74F80468A46AD
:103BC0001D4691461AB93B490320FDF7D7F810224C
:103BD000394948460AF0C6FA0028F4D06B1E7F2BFC
:103BE000F1D800242646354F97F83120A7F1040B71
:103BF000954257F8043C2AD1002B57D09A8EC2F335
:103C00000412924523D1194640460193FFF772FDF5
:103C1000019BE0B14946384604F052F98542019BC8
:103C200015D8B8F1000F04D010224146181D0AF033
:103C3000A8FA5C46224BB6019A5992F8363043F006
:103C4000400382F83630204603B0BDE8F08F14B947
:103C5000002B08BF5C460136082E07F14007C3D190
:103C6000002CF0D051464046FFF79AFD06462060F2
:103C700030B90146402220460AF0A7FA3446E2E76E
:103C8000024651464046FFF757FD204650F8042BA8
:103C9000EDB292F83630494643F0400382F83630B0
:103CA0002A4604F030F984F83550CCE7002C08BFE0
:103CB0005C46D0E764F4000811FC00086C2000208A
:103CC0006820002038B504460068F0B100230F4991
:103CD000CA18944202D05D58A8420CD04033B3F5C4
:103CE000007FF5D190F8363023F0400380F836306D
:103CF000FFF716FD02E0064B9A42F3D22046BDE8DC
:103D00003840402200210AF060BA38BD6820002007
:103D10006822002028B14030064B984203D300208F
:103D200070470548F8E790F83420002AF8D1403071
:103D3000F3E700BF6822002068200020054B98426E
:103D400006D303F5007398422CBF00200120704772
:103D5000002070476820002070B50C46054610B161
:103D6000036803B119B912490320FDF707F8011DD3
:103D7000102220460AF005FA002195F8353084F823
:103D8000211084F820302E6804F11000B38E102228
:103D9000C3F30413638495F83430042B03D1BDE8D6
:103DA00070400AF012BA311DBDE870400AF0E9B95E
:103DB00064F400082DE9F84F1646814600B11AB99F
:103DC0001B490320FCF7DAFF002425462746DFF8CD
:103DD00064A00AF1040B04EB0A0898F8343063B1CC
:103DE00049460BEB040004F06BF8B84205D998F88B
:103DF000353083429CBF074645464034B4F5007FCA
:103E0000E9D11DB195F83430042B0CD1FFF77AFEBF
:103E100018B945B96FF0710003E03146FFF79AFE1B
:103E20000020BDE8F88F31462846FFF795FFF7E7F9
:103E300064F400086820002090F8343023F0040374
:103E400080F83430FFF73EBF2DE9F8431E46134695
:103E50000A4601460020089DFFF7AEFE04460028F2
:103E600040D090F83430AE4243F0040380F8343050
:103E700003D21F490320FCF781FF771C01D1681C86
:103E800033D0FCF779FE4FF47A72002309F006FE76
:103E9000691C07461DD0174B04F11408414616480B
:103EA000B3F9009008F01CFB0023C4E9053544F683
:103EB000CC732462E383A4F81C9041460E4808F0BA
:103EC000E5FAAA1C05D0EB19013301D107B1013580
:103ED0003D44F31C04D8F319013308BF01363E44B6
:103EE000C4E90E652046BDE8F8832E46F8E700BF1A
:103EF00064F40008522000206C220020002210B53B
:103F0000094B9B691BB94FF0FF32104610BD5C682E
:103F100022445C898C4204D10028F6D0DC688442BB
:103F2000F3D01B68EEE700BF6C22002070B5064698
:103F300014460D4609B9002070BD082218490AF040
:103F400011F938B13378FF2BF5D1737803F00F03F3
:103F5000022BF0D1D5F8A03006F10801DB0704F1FF
:103F6000100203D40F490320FCF708FF95F8AF00B7
:103F700004F0E0F9C0B20028DDD0A076102231466E
:103F800020460AF0FEF8B5F9B03001201B0103F419
:103F9000F87343F4806343F006032383CCE700BF48
:103FA000E1FB000864F400082DE9F843054601F040
:103FB0001BF90446FFF7A6FD002857D0002C57D068
:103FC0000368B4F9B0109A8EC2F30412914203D080
:103FD00028490320FCF7D2FE043318462A4621461E
:103FE000FFF700FB2946204601F00CF821180B7C56
:103FF000064603F01F02102A29D003F00702013AF7
:10400000012A2BD80133D4F894700B74751C2D0140
:1040100005F1020864352544174B29461748B3F9C2
:10402000009008F05DFA0023A04404EB0614C4E9F4
:104030001D3744F6CF73C4F88080A4F87E30A4F80E
:104040007C902946BDE8F8430C4808F01FBA4EF6AC
:104050006027DBE72946204600F0D4FF002384F8E0
:1040600098302046BDE8F843FFF7DCB9002CF1D1C9
:10407000BDE8F88364F40008522000206C22002080
:104080002DE9F3470E461F46044618B94849032058
:10409000FCF774FE5B78022B03D0042002B0BDE86D
:1040A000F0871378882BF8D1D0F8A030DB07F4D54F
:1040B0006B4690F8AC2000F1A40101F023FA082827
:1040C000EBD1DDE90023F968B8688B4208BF824272
:1040D000E3D1BB78012B47D003D3022B4AD0B87869
:1040E000DCE7FD8806F1180120466DBA00F08AFF72
:1040F000ADB2012D18BF4EF6602804EB0002137C10
:1041000018BF08FB05F800F101054FEA051523F07B
:104110001F0343F0100305F1020905F1640525446E
:104120001374244B18BFA8F56A480646294622484E
:10413000B3F900A014BFA8F1600847F2305808F0A6
:10414000CFF90023A14404EB0614C4E91D3844F65A
:10415000CF73C4F88090A4F87E30A4F87CA02946E0
:10416000154808F093F9BAE706F11801204601F066
:10417000A9F8B4E7B4F9B01006F10800FFF7A4FC01
:104180000546002882D0FFF76FFC0020FFF786FC71
:1041900028B984F898002046FFF744F99FE72B6878
:1041A000002B3FF473AF06F11800FFF7FDFE96E712
:1041B00064F40008522000206C22002013B54B78D4
:1041C000022B18D18A78402A15D80378862B12D171
:1041D000C888083140BA84B211F8050CC0F3001346
:1041E000009300F00F00234601F0F0FF4EF6602030
:1041F000604302B010BD4FF0FF30FAE7F0B504465F
:1042000085B00D46174600211022684609F0DDFFF3
:10421000D4F8A030DB0736D502AB94F8AC2004F11B
:10422000A401204601F0C8F93A462946684603F041
:104230006AFE6946204600F0E5FE061E25DA0723E1
:104240003A466946204600F053FE061E1BDB012756
:1042500008220F49284609F085FF38B12B78FF2B3B
:104260000BD16B7803F00F03022B06D1A219137C3C
:1042700023F01F0343F01003137427B104EB06105F
:104280001230FFF791FE05B0F0BD0027E0E700BF58
:10429000E1FB000870B50646184608F007FB044627
:1042A00078B1FF224368DA7100231A46194618468E
:1042B00001F090F9054630B92146204601F06CFB2B
:1042C0002C46204670BDB6F9002043685A80046031
:1042D000F6E7000008B502490320FCF74FFD00BFD8
:1042E00064F4000838B50D46044610B10378FF2B7E
:1042F00001D1FFF7EFFF182300228721284608F09D
:1043000041FA68B1002243681A715A719A71DA71E0
:10431000216862689960DA60A168E26819615A618F
:1043200038BD70B50D461646044610B10378FF2B14
:1043300001D1FFF7CFFF182300228821304608F073
:1043400021FA78B10022436825F01F051D71DA714A
:104350009A715A71216862689960DA60A168E268AE
:1043600019615A6170BD08B500220823852108F043
:1043700009FA28B1002243681A715A719A71DA71E8
:1043800008BD002310B504461046CA1D02F0F8020D
:10439000194601F031FC20B1426814708368DB08D3
:1043A000537010BDF8B507460E4618460231FFF7A8
:1043B000E8FF044660B1456882680235023A002190
:1043C000284609F002FF32463946284609F0D9FE50
:1043D0002046F8BD10B500B109B9FFF77BFF0123F6
:1043E000BDE81040FFF7DEBF10B500B109B9FFF717
:1043F00071FF0223BDE81040FFF7D4BF2DE9F34160
:10440000089D0C4616469846074610B10378FF2BC8
:1044100003D126490320FCF7B1FC0029F9D0B8F1FB
:10442000000FF6D0084600F069FB36B9324639462F
:10443000204600F0FFFD0646A8B110221C49304678
:1044400009F090FE78B104F1A40194F8AC2068461C
:1044500009F097FE94F8AC1029B12A466846FFF798
:10446000B9FFF0B1054638462946FFF73BFF07463E
:10447000B8B103464246314604F1B000FFF70AFFE7
:10448000054668B1034640F202220A49022000F0C4
:1044900010F930B1204600F038FB02B0BDE8F081E1
:1044A0003D460021284601F08BFCF3E764F4000848
:1044B00011FC00080000FFFF2DE9F04786B00C4614
:1044C00091469A460E9D074610B10378FF2B03D103
:1044D00031490320FCF752FC0029F9D0002AF7D01B
:1044E000084600F00BFB3946204600F08BFDB0F18A
:1044F00000084BDB10222949484609F033FE102200
:104500000646A0B9264902A809F03BFE04F1A40121
:1045100094F8AC20684609F034FE94F8AC1071B100
:104520002A466846FFF760FF80B3054607E0494624
:1045300002A809F026FE4026BAF1000FE6D135B1F7
:10454000A04498F810309B0648BF46F0200631463C
:104550002A463846FFF7E5FE0646B8B1034602AAEA
:10456000002104F1B000FFF795FE054668B103464F
:1045700040F202220B49022000F09BF830B12046A5
:1045800000F0C3FA06B0BDE8F087354600212846A2
:1045900001F016FCF3E700BF64F4000811FC00080A
:1045A000C1FB00080000FFFF2DE9F3410E46054660
:1045B00018B924490320FCF7E1FB234B002908BF6D
:1045C0001E4600F09BFA00223146284600F032FDDC
:1045D000804698B305F1A40195F8AC20684609F02F
:1045E000D0FD95F8AC1051B100226846FFF7F2FEFD
:1045F000044628B90021204601F0E2FB18E00C46F1
:104600002046FFF7B0FE07460028F3D003463246A7
:10461000414605F1B000FFF73DFE044680B1034678
:1046200040F202220949022000F043F80028E1D0BC
:10463000284600F06AFA02B0BDE8F0810446DFE7E0
:104640003C46D7E764F40008D1FB00080000FFFFF8
:1046500000B589B006930A9B8DF81410ADF81C3094
:10466000BDF82C30ADF81620ADF80630024605AB8B
:1046700003A901A80293FDF705FC40F20523BDF84C
:104680000E209A4203D004490320FCF777FB0498DC
:1046900009B05DF804FB00BF64F4000807B50191A0
:1046A00001466846ADF80220FDF7C8FB03B05DF88F
:1046B00004FB2DE9F3410446884617461D4601F0E8
:1046C0003EF9064648B14146204601F033F9711ED5
:1046D0000446284601F062FB1CB9304602B0BDE832
:1046E000F081237A33B1012B11D00021284601F04B
:1046F00067FB07E03A462946B4F90C00FFF7CEFF06
:104700000028F2DD204601F028F90446E4E7002203
:104710006946E068ADF80270019507F0AFFDEFE77C
:10472000036810B45C69034AA44601231C2110BC31
:10473000604700BF47FB000808B51022034909F095
:1047400011FDB0FA80F0400908BD00BF11FC00085F
:1047500010B508220949044609F004FD48B1237840
:10476000FF2B08D1607800F00F00831E584258419B
:1047700010BD0120FCE70020FAE700BFE1FB0008C4
:10478000F8B5044608460F461546FFF7D5FF98B919
:104790005DB1032604F132050024394605EB04100F
:1047A00003F079FB28B12046F8BD04F1120502267A
:1047B000F2E70134A642F0D14FF0FF30F4E7A0F168
:1047C00030020346D0B2092802D811460846704785
:1047D000A3F14102052A02D8A3F13701F6E7A3F1BC
:1047E0006102052A98BFA3F15701EFE770B545684C
:1047F000044600F067FE2B6801461E6904F1A4021E
:1048000008232846B04710F1860F08D0D4F8A0300E
:10481000002843F00103C4F8A03008DC70BD94F810
:10482000AC30002BFAD003490320FCF7A7FA84F838
:10483000AC00F3E764F400082DE9F0418846174620
:10484000054600B119B91E490320FCF797FA047C0C
:1048500054B31ABB05F112064146304603F030FB53
:104860004028044603D83046FFF772FFF8B9002607
:104870006B7C83B127B19A060DD43B789B070AD590
:1048800022354146284603F01BFB4028074610D935
:10489000A74228BF01263046BDE8F081A10606D414
:1048A000147814F00104D5D14FF0FF36E0E700246E
:1048B000FAE72846FFF74CFF0028E9D0EBE700BFF6
:1048C00064F400084FF6C06203885BBA23F03F032C
:1048D0001B041B0C93420AD00378FF2B09D14378A9
:1048E00003F00F03052B14BF0E2005207047052091
:1048F00070470E207047000013B5806891B941F2EF
:104900003423ADF800100190B0F9B0106846ADF84E
:104910000230FDF771FA002802DC0E4809F08CFD28
:1049200002B010BD0229FBD103689B68984704467A
:104930000028F5D00346084940F2012290F9100002
:10494000FFF7B7FE01460028EAD1204601F038FA09
:10495000E6E700BFFEFA00080000FFFFF0B585B0F3
:104960000A9E0E4CD4E90057B74213D025B9C4E9CA
:1049700002550B9D25601FB109490320FCF7FEF984
:10498000CDE90143074B666000930823FCF796FAD4
:104990000028F1DD014805B0F0BD00BFC8220020AD
:1049A00064F40008194B000808B50A4B58B1984246
:1049B00003D209490320FCF7E1F9B430074B9842D0
:1049C00003D3002008BD1846F8E70268002AF9D191
:1049D000B430F4E7C822002064F400087C230020EF
:1049E00010B500242046FFF7DFFF08B9204610BDB0
:1049F0000368002BF7D00134F5E710B5044600201A
:104A0000FFF7D2FF18B1B0F9B030A342F8D110BD12
:104A10002DE9F84380460E4615460AB120B919B172
:104A20000D490320FCF7AAF900242F462C7006F14B
:104A3000FF39B44202D12846BDE8F88318F80410C3
:104A4000384607F07BFDA14514BF3A2300233844C4
:104A5000471C03700134ECE764F400082DE9F84FBB
:104A600080460F4619B924490320FCF787F918B985
:104A700000252846BDE8F88F0378002BF8D00346C0
:104A80001E4675780133002DFAD13C464FF00109DE
:104A90004FF0FF313078FFF792FEB0F1000B06F1D6
:104AA000FF3A15DAB9F1000FE2D14FF00109C24522
:104AB0000CD2B9F1000FDBD1013CA742D9D2237847
:104AC0003A7804F8012907F8013BF6E75646DFE794
:104AD000D0450FD8002116F8010CA6F1020AFFF705
:104AE0006EFE4BEA001B84F800B0013501344FF034
:104AF0000009DCE70020F4E764F4000820B1036853
:104B000013B1083007F082BB704720B1036813B1BE
:104B1000083007F07FBB70472DE9F04140F20523D4
:104B200000250446A8B0CDE90455ADF81230FFF7D2
:104B3000E5FF934B10211B8808A8A4F8B0306668E5
:104B4000FDF702FA8F4B3046C6E9013433689B68A3
:104B50009847011EC0F206813046FFF7E1FD60680C
:104B60000DF10602036827211F690223B8470228B6
:104B700003D085490320FCF701F9BDF80630204633
:104B800084F8AF3000F0DCFC2046FFF72FFE012355
:104B90000022ADF804508DF805300023CDE9022342
:104BA00094F8AF30CDE90655DA1E072AE1D8DFE8E0
:104BB00002F0047104A2B271B204D4F8A020D207AA
:104BC000D7D594F8AC20062AD3D1052B09D00A2BCF
:104BD00059D0032B0AD140F2DC53B4F89C209A42FE
:104BE00003E0B4F89C30B3F5A06FC2D1D4F8A03084
:104BF000D90720D502AB94F8AC2004F1A4012046DB
:104C000000F0DAFC8630B4D0D4F8A030DA07B0D5A2
:104C100001A994F8AF0003F0A7FB8630A9D0D4F81F
:104C2000A030DB07A5D506AA02A994F8AF0003F0CF
:104C300081FB86309DD04023204684F8AE30FEF7BD
:104C40006BF823681B680BB1204698472046FFF796
:104C50005CFF40F2032541F2342740F2022806A807
:104C6000FDF76FF9BDF81A30AB426DD0B3F5017F97
:104C70005CD2434562D023685B69002BEFD006A964
:104C800020469847EBE740F2DC53B4F89C209A4268
:104C9000ACD96EE7D4F8A030DF077FF56AAF94F89F
:104CA000AC30022B02D0082B7FF463AFB4F89C30F9
:104CB000B3F5A06F7FF45DAF94F8AD30002B3FF4F7
:104CC00058AF60680DF10302036818211D690123C4
:104CD000A84786303FF44DAF94F8AF30042B85D110
:104CE000606806AA036803211D690823A847863067
:104CF0007FF47CAF3DE7D4F8A030DD077FF539AF16
:104D000094F8AC30012B7FF434AF4FF6FF73B4F856
:104D10009C209A42ECE7D4F8A030D8073FF529AFA1
:104D200094F8AC30002B3FF461AF22E717D0BB42C0
:104D3000A1D133683046DB68984790E7236807992C
:104D40005B68204698478AE723681B6907992046D5
:104D5000984704A9059006A8FDF7C2F87FE72368E5
:104D6000DB68F3E7094809F0DFFA28462560A4F874
:104D7000B0506560C6E9015528B0BDE8F08100BFBC
:104D80000C040020F948000864F4000823FB000824
:104D90002DE9F8430E460546FFF7B0FE3378348917
:104DA0000B2B53D00DD8082B00F08180092B32D06B
:104DB000072B0CD1012C22D1736895F8AE201A7004
:104DC00023E0112B00F087800AD80C2B53D06868A1
:104DD0007268036831781C693389A047044614E07F
:104DE0003F2B0AD0402BF2D1012C08D1D5F8A030AE
:104DF0007268C3F30023137007E0012C03D03B4912
:104E00000320FBF7BBFF73681C702846FFF77DFE8D
:104E10002046BDE8F8830F2CF1D92C7C77683CB193
:104E20003846102205F1120109F0ABF910241037B1
:104E300033899C42E9DA6B7C002BE6D0102205F125
:104E40002201384609F09DF91034DEE7002CD6D057
:104E50000024726805F1100305F112003189A142A6
:104E6000D3DD8342D1D013F8011B0029F6D002F81C
:104E7000011B0134F2E70F2CC1D90024D6F80480BD
:104E800005F1320705F162093389A342BDDDB94559
:104E9000BBD03846FFF750FC38B94046102239469F
:104EA00009F06FF9103408F110081037ECE7072CFF
:104EB000A5D9D5F8A0207368D20788D595F8AC207D
:104EC00005F1A401284600F077FB10F1860F044697
:104ED0003FF47DAF99E77388022B7FF478AF022C03
:104EE0008DD1B5F89C2073681A808EE764F40008B1
:104EF0002DE9F0470E468AB091461F46044600B1A0
:104F000019B93E490320FBF739FF0B78FF2BF8D086
:104F10000846FFF711FC0028F3D11022384930462B
:104F200009F020F90028ECD009F1FF337F2BE8D8F5
:104F30002046FFF7E3FD07F01F03072B08BF07F02C
:104F4000F807314604F1120008BF47F0010702F0EC
:104F5000A2FFB0B9257C3146003504F1220018BF0C
:104F6000012502F098FF6D42804680B98DB1637CC7
:104F7000CBB32046FFF7C9FD6FF00B000AB0BDE8C8
:104F8000F08700252046FFF7C0FD2846F6E70125FB
:104F9000F8E70546681C04EB050A04EB00108AF8E4
:104FA000107010223146023009F0EBF89AF81030F8
:104FB00003F01F03102BE5D10023029303AA02A9DB
:104FC000B4F9B00007F036FD074670B9B8F1000F2C
:104FD000D8D14FF0FF33B4F9B0004A4600933146C0
:104FE00007F08EFCCEE70125D4E7314603A802F096
:104FF00067FF484528BFB846E0E700BF64F40008F3
:10500000F1FB000838B50D46044600B119B908494E
:105010000320FBF7B3FEFFF771FD2946002220466F
:10502000FFF7AEFB05462046FFF76FFD284638BD6B
:1050300064F400082DE9F74F88461546044600B190
:1050400019B968490320FBF799FE0122002168463F
:1050500009F0BBF82046FFF751FD237C63B94FF000
:10506000FF37637CD3B93FB300252046FFF74DFDE2
:10507000284603B0BDE8F08F5907F0D13DB99DF83F
:105080000030002743F001038DF80030E9E704F118
:105090001200FFF75DFB0028F1D1E0E75A07E2D1EB
:1050A000002D40F082809DF8003043F002038DF81F
:1050B00000307B1C5F425F410222002101A809F001
:1050C00084F84046FFF744FB002876D14046FFF7BE
:1050D000F9FB81460026334604F1020B01229DF8BC
:1050E000001003F1010A02FA03F3194231D00BEB6D
:1050F0000A154146284602F0CEFE0028B5D12846C2
:10510000FFF726FB00285BD12846FFF7DBFB814534
:1051100058D101AB03EB0A0111F8013C0433DBB2B7
:10512000B34288BF042601F8013C04EB0A03DB7B91
:1051300003F01F03082B0CD101AB03EB0A0111F89C
:10514000013C0133DBB29E4238BF1E4601F8013CF0
:10515000F6B2BAF1020F4FF00103BFD11A46002197
:10516000684609F032F89DF804306A46B34208BF39
:105170009DF80030414604BF43F001038DF8003034
:105180009DF805302046B34202BF9DF8003043F041
:1051900002038DF80030FFF74FFB051EB4BF04EB90
:1051A000071504EB051512355FE704F12200FFF740
:1051B000CFFA00287FF477AF55E74FF0020989E76F
:1051C0000220A4E7B1D901AB03EB0A0111F8013CBD
:1051D0000233DBB29E4238BF1E4601F8013CF6B2F4
:1051E000A3E700BF64F4000838B505460024204654
:1051F000FFF7DAFB044660B100222946FFF7C0FA48
:10520000002806DA012229462046FFF7B9FA0028CD
:10521000EDDB204638BD2DE9F041054688460026E5
:10522000FFF76CFC4FF0FF3405F13207414638467A
:1052300002F031FE28B12846FFF767FC3046BDE892
:10524000F081621C05D13846FFF776FA002818BFB6
:1052500034460136032E07F11007E7D1631C05D150
:105260002846FFF752FC6FF00B00E8E705EB04104F
:1052700010224146323008F084FF2846FFF745FCF3
:105280002046DCE738B50D46044600B119B90C4993
:105290000320FBF773FDFFF731FC0122294620466E
:1052A000FFF76EFA002806DB04EB00101022002145
:1052B000323008F08AFF2046BDE83840FFF725BCB1
:1052C00064F400082DE9F04F0D468BB0044600B1A0
:1052D00019B92B490320FBF751FD4FF0000940F2AB
:1052E000FF284FF08076FF274B7BCDE902898DF8B0
:1052F0001530CB8904968DF81470ADF816304FF048
:10530000010AFFF7FBFB4A4604F1120B531C294626
:105310005846009302F0BFFDD8B10021009B5846CB
:10532000E218D173102208F050FF009B0BF1100B14
:10533000022B4FF00102E9D1BAF1000F03D002A90C
:105340002046FFF79FFF2046FFF7DFFB0BB0BDE8CD
:10535000F08F9BF80D1001908DF82510BBF80E1002
:1053600006A8ADF8261002A9CDE9068908968DF8A1
:10537000247002F090FD019A002818BF9246D4E7ED
:1053800064F4000870B50E460546FFF7B7FB3378A6
:1053900034890C2B5BD00BD8092B41D00A2B4FD072
:1053A000072B0AD1012C32D045490320FBF7E6FC3C
:1053B000112B5AD019D80D2B50D068687268036829
:1053C00031785C693389A047041E24DD3378022BD1
:1053D00021D3052B6FD9192B1DD173681B78052B91
:1053E00019D16868FFF79CF915E01A2B4CD0402BB7
:1053F000E3D1012CD8D17368D5F8A0201B78012BFC
:105400003DD142F48072C5F8A020012403E0736806
:105410001B7885F8AE302846FFF777FB204670BD35
:10542000102CC1D17288716802F0E00343F01003C0
:10543000120A2846FFF75CFD041E38DB1024EAE759
:10544000102CB1D171682846FFF73CFFE3E7102C20
:10545000AAD171682846FFF7DEFEEDE7102CA3D134
:1054600071682846FFF70EFFD5E77388022BA4D199
:10547000022C99D173681B88A5F89C30CBE722F4E5
:105480008072C5F8A020C6E77268D5F8A030117800
:10549000686801290CBF43F4803323F48033C5F8D6
:1054A000A03003681A215E692346B047ADE714F1C6
:1054B000860FB0D181E72846FFF798F9ABE700BF28
:1054C00064F4000813B590F8AF30043B012B15D8F5
:1054D00040680DF10602036805211C690223A047FC
:1054E000022803D006490320FBF748FCBDF806302C
:1054F000082B14BF0220032002B010BD0220FBE7DE
:1055000064F4000830B41D46D0F8A030DB0713D592
:1055100090F8AF40042C0AD1022A08D140682A46EC
:10552000036803211C690823A44630BC60472B464E
:10553000204630BC02F09EBE6FF0850030BC704744
:1055400037B50446406803681D6994F8AF30043BE2
:10555000062B20D8DFE803F0041F041F041F0A00F5
:10556000D4F8A03043F48073C4F8A03002230DF1C6
:1055700006021121A847022803D00E490320FBF799
:10558000FDFB4FF4A063A4F89C30BDF8063084F80E
:10559000AD3003B030BD02230DF106021121A84742
:1055A0000028B4BF4FF6FF73BDF80630A4F89C3056
:1055B000EFE700BF64F4000810B4D0F8A040E4079F
:1055C00004D590F8AF0010BC02F06EBE6FF08500FD
:1055D00010BC70472DE9F041174603F108020A4458
:1055E0000E46002180461C4608464FF0FF3300F06F
:1055F00003FB0546E0B10023406806704470438019
:105600008380C380B8F1000F05D026B132464146F1
:10561000083008F0B6FD5FB154B168684378A34222
:1056200006D10378224608333946184408F0A9FD0C
:105630002846BDE8F0810000F0B5456891B02B7FA9
:10564000EA8903F02803ADF818200E4621B96FF05F
:105650001504204611B0F0BD91F9102001323DD162
:1056600049680F79FA060A7854BF43F0010443F001
:10567000110417F0C00F03BF02F108035B1891F883
:1056800001C04FF0020C18BF164B12B30831A87EB0
:10569000471CAF76CDE90340BDF818000AAFADF85E
:1056A0000800ADF80400CDF800C0384602F094FAC6
:1056B0000028CCD033680990CDE907372B6807A9BB
:1056C0001B682846984700210446304600F078FBC6
:1056D000BFE790F8AC2000F1A401D8E76FF04C04CC
:1056E000B7E700BFBFFB00082DE9F047456886B06B
:1056F0002B6807465C68002328461A461946A047CF
:105700000228064640F3AD8000230246194618469B
:1057100000F072FA2B68044648B95F6801460346F8
:1057200032462846B847204606B0BDE8F087D3F891
:105730000480416801AB32462846C047B0F10008FA
:1057400005DC0021204600F03BFB0024EBE7D7F806
:10575000A02012F480361FD000231A46194618469E
:10576000FFF738FF05460028EBD043689DF8062078
:105770005A71BDF80420DA80B7F8B0205A800023AF
:10578000036023461A682AB91D604146204600F08E
:10579000B3FAC8E71346F5E7606802F0AFFA0146CE
:1057A0000028CED08045CCD33246A8EB0008204656
:1057B00000F03CFA06460028C3D0D0F804906A46B0
:1057C00004A9484602F00CFB82466A4602A94846F4
:1057D00002F0B6FABAF1000FB3DB0028B1DBC1B2B8
:1057E0005FFA8AF304AA02A8FFF7F4FE074600282E
:1057F000A7D0BAF1020F43680BD19DF81020FF2A01
:1058000007D19DF81120FF2A02BF1A7962F07F02AA
:105810001A7199F80020D20603D51A7942F01002C5
:105820001A719DF8062018215A71BDF804202846E7
:10583000DA80114A12885A802B6804F11002D3F8DA
:1058400010900123C8473146204600F0A5F80023F8
:105850003B60234600E013461A68002AFBD11F6014
:1058600093E700287FF771AF2B6802465C6800233E
:1058700028461946A04768E70C04002013B5044CDD
:105880000194049C0094FFF769F802B010BD00BFBA
:1058900048FB000858B9CBB2042B00D97047054B20
:1058A00053F8210000B9704743689342FBD0006869
:1058B000F8E700BF7C2300200A7A08B50B46AAB996
:1058C000B1F90C100C4A52F82120526A72B90B48F7
:1058D00008F02AFD0A490320FBF750FA094A52F85A
:1058E0002010196042F82030002008BDC2B2042AFE
:1058F000F4D96FF01500F8E75C04002060FB0008A5
:1059000064F400087C230020C3B2042B0FD8084A9B
:1059100052F820308B4204D11B6842F82030704787
:1059200013461A681AB18A42FAD10A681A60704797
:105930007C2300200A4601460020FFF7ABBF70B56C
:10594000054600200E46044632462946FFF7A2FFD0
:1059500008B9204670BD0134F6E718B1426800214D
:10596000FFF798BF704761B190F91030032B04D056
:10597000042B04D06FF00100704706F013BF02F053
:10598000D9B86FF01500704718B190F910308B42FC
:1059900000D170470068F7E710B504468C4208460E
:1059A00006D124680021016000F00AFA204610BDEB
:1059B00023461A68002AF5D0824202D102681A6092
:1059C000F0E71346F5E7F8B5002106460446876878
:1059D0007CB98F420BD0304600F08EF9044630B9C6
:1059E000356855B92946306800F0EAF93560204637
:1059F000F8BDA36824681944EAE77068D5E9011284
:105A0000384408F0BEFBAB682D681F44E9E700008E
:105A1000002170B5174A0730136820F0070003B360
:105A20005C68844210D3241A072C1844124E0ED9F5
:105A3000C6F108050544B5F5C05F16D9002111600F
:105A40001A68C0E9002405E019461B68E7E71C68EE
:105A500049B91460094A801B118880B2814200D282
:105A60001080184670BD0C60F4E709B91060E7E7D4
:105A70000860E5E79023002098230020983B002051
:105A800008B502490320FBF779F900BF64F4000868
:105A900001210148FCF71CB89423002038B51D4BA8
:105AA000C31AB3F5C05F1FD200231B4C22680AB192
:105AB00082421AD3073121F007010260174A4518C4
:105AC000521B072A98BF891841608BB92060036870
:105AD00053B1426802449A1A072A05D81A6802602C
