:020000040800F2
:1000000000020020C10400089D04000851040008FB
:1000100000000000000000000000000000000000E0
:10002000000000000000000000000000250400089F
:100030000000000000000000FD030008AD040008FF
:10004000C1000008C1000008C1000008C10000088C
:10005000C1000008E50A0008E50A0008E50A0008F2
:10006000C1000008C1000008C1000008C10000086C
:10007000C1000008C1000008C10000088914000880
:10008000C1000008C1000008C10000080000000015
:10009000C1000008C1000008C1000008C10000083C
:1000A000C1000008C1000008C1000008CB0800081A
:1000B000C1080008C100000800000000C1000008DD
:1000C00010B500F0F3F910BD10B500F007FB10BD3E
:1000D0007047000070B50C00060000F0B1FA094B43
:1000E000094A1D682C19944202D8084A944207D242
:1000F0000C23012533606D4200F0AAFA280070BD80
:100100001C60F9E70002002000500020281C00209D
:1001100010B51900100000F0EFFA10BD10B519006D
:10012000100000F0F3FA10BD1323036001204042D9
:10013000704713230360012040427047132303607C
:100140000120404270470023022203608A425B4143
:100150001800704770B50D0000F032FE040003294E
:1001600003D818D1104B984215D90B0022000F4824
:100170000F4900F074FA0B05000B1843090B8B06AE
:100180008909696080090B49184328604843241A8B
:10019000AC60002070BD084A0023200009F05CF824
:1001A000080B0021EBE7C046FDFF8FD0DB34B6D74C
:1001B00082DE1B4340420F0083DE1B430020124BB4
:1001C00010B51860114B12491B680A685C421C404C
:1001D000104B6343104CDB0EE35C104C9B001B592F
:1001E0001B68083B93420ED0824204D010790A2843
:1001F00001D1013010710A221A710622985E084A54
:100200000B601080012010BD780400206C040020D9
:100210007404002031B57C0728CD0008800400203C
:100220007004002030B50379092919D9092B13D896
:1002300004004379184A9B009D580834002D0DD0C6
:100240002D6885609D582C60D45001234479134A51
:10025000A340146823431360017130BD8460F3E749
:10026000092BF9D942790C4C92001359002B04D078
:100270001D68AB420DD1002313514579AB00E35803
:10028000002BE9D10133AB40044A14689C4323009E
:10029000E1E72A681A60F0E7800400206C0400207F
:1002A00010B5094B1B681A79092A02D95B79834278
:1002B00006D900F0D0F9002803D00122034B1A60C0
:1002C00010BD00F091F8FBE77404002078040020D2
:1002D00070B5002400F0B4F9084B094A1B88094D99
:1002E0001BB29B009C50084A210013682868013B00
:1002F0001360FFF797FF2C6000F072F87004002085
:10030000C0040020740400207C04002003000F4877
:10031000FF229842804140420001C3409A429241EC
:100320005242D200D3400F219942894102434842B0
:100330008000C34003219942894149424900CB4092
:1003400002430A43580810437047C046FFFF0000AD
:10035000D318032293431F4A10B51C1F2260620763
:1003600003D0083B1C001C4B23608022231F520437
:100370001A601A4A043B1860043B1A600022043BCE
:100380001A60043B03321A60043B013A1A60043BD2
:10039000013A1A60043B19600632043B1A60043BC0
:1003A000013A1A60043B013A1A60043B013A1A60B0
:1003B000043B07321A60043B013A1A60043B013ADD
:1003C0001A60043B013A1A602000032344385B4260
:1003D000036010BD7777777788888888D102000816
:1003E00000F032F901DFFEE78023034A5B05516824
:1003F0000B4353607047C04600ED00E0EFF3098007
:10040000EC4685464046494652465B46FFB4704638
:1004100001B46846E54602490968086000F002F840
:1004200074040020FFF7CAFEEE4608480068006822
:10043000854601BC8446FFBC8046894692469B4661
:10044000684680F30988F546604700007404002080
:100450000F4B104A10496846904203D8984201D980
:10046000002102E0091C8D4601210420724602424F
:1004700002D1EFF3088001E0EFF30980F0B44346C6
:100480004C4655465E4678B46B4600F04DF8C04683
:1004900058010020005000200002002010B5024941
:1004A000042000F091FDC046E1CE000810B50249DD
:1004B000062000F089FDC04648CD0008704770470F
:1004C00070B5FFF7FBFF6A46104B11499A4214D8EA
:1004D000002310481049114C1A188A420FD30021EA
:1004E0000F4B104A93420ED3FFF7E9FF00F04AFD8D
:1004F0000BF092F900F09CFD70BD02C3E6E7E558F1
:1005000004331560E8E702C3ECE7C04600000020B2
:10051000FEE7FEE7000200206C04002044E0000833
:100520006C040020281C0020F0B58DB00A92364AD9
:100530000B931268354B040003919A4202D0344861
:100540000BF0E8FA039B002B37D0002531480BF065
:10055000E1FA2E0030480BF0DDFA0A992F480BF033
:100560004BFA039B002B23D12D480BF0D3FA31001B
:100570002C480BF041FA6946234BC91A2A4BC9187B
:1005800003D5494229480BF037FA0B9B1E00201C6B
:100590008268C36801698C4641698E46AD46311C4C
:1005A000F0C9A046A946B246BB46F0C941680068FA
:1005B00001BE1F49052000F007FD25002368E769FB
:1005C00004936368A6690593A36824350693E368DA
:1005D00007932369089363690993BB0500D4043D1D
:1005E00014480BF097FA079B059A00930499069B11
:1005F00011480BF001FA00973300099A08990F4847
:100600000BF0FAF9A6E7C04600000020FEE7FEE77F
:1006100056CD00086CCD000831CE000836CE00085B
:1006200048CE000879CE0008A8FEFFFFA1CE000842
:10063000CECE00089BCD0008B6CD0008F3CD000853
:10064000EFF3108072B6704762B6EFF31080704718
:1006500080F310887047EFF30580C0B27047F0B5A3
:10066000002687B005000F00039308003300310017
:10067000140008F0F1FD2A00009004913300039863
:10068000310008F0E9FD84463300624605913100EF
:100690000098801859412A000090019120003100F3
:1006A00008F0DAFD33000A000098019935001218AD
:1006B0004B4131000598049C009324184D413300B0
:1006C000039A3800019608F0C7FD00196941009BA4
:1006D000019CC018614107B0F0BD0000E12110B5D8
:1006E000034B044A4902002000F082F810BDC046C6
:1006F00004020020A511000810B50A0001000248FC
:1007000000F05BFD10BDC0460402002010B50C00D7
:100710000A000100002000F029F8200010BD0000B0
:100720001C2343430E4A70B59C58E569AB0609D5B6
:100730000C2358430B4A616A13181E7A82583140C1
:100740005868904708231D4202D0226A134323624F
:10075000054B1B68002B01D0FFF746FE70BDC0465D
:10076000F0CE0008840500207804002070B5012830
:1007700003D90D49032000F027FC1C2358430B4BE1
:10078000C3581868000707D580208A18914204D101
:100790004022D9691142FCD070BD0C78DD69054258
:1007A000FCD09C620131F1E728CF0008F0CE0008B0
:1007B00010B50400012803D90A49032000F004FC05
:1007C0000C234343084A9B58002B02D0012000F021
:1007D00021FD1C235C43054B1B19987C596800F0D4
:1007E000BFFD10BD28CF000884050020F0CE000812
:1007F000F7B5060001911400012803D92C49032004
:1008000000F0E2FB0C2141432A4A1C258C5052186F
:100810005360FF2345431372274B01215D19EF6895
:10082000380000F09AF8380000F0F3F8697C3800DE
:1008300000F0CEF8002C08D0AF680021380000F09E
:100840008CF8297C380000F0C3F83000FFF7B0FFC7
:100850001C235E43184B9D5900232B606B60AB60DB
:10086000154B9E19337D002B1ED1B07C00F06AFD24
:10087000019908F01DFB0F2203091B051B0C1040FA
:100880001843E8600923002C0BD0F37C5AB2002AED
:1008900006DB1F2213401E3A9A401300074A1360DA
:1008A0002D2300202B60FEBD01204042FBE7C04607
:1008B00028CF000884050020F0CE000800E100E009
:1008C00010B50020FFF72CFF10BD10B50120FFF779
:1008D00027FF10BD10B5184A002812D0012821D0DA
:1008E0000421002413698B431361FFF7A9FEBFF3B2
:1008F0004F8F30BFFFF7ACFE002C01D000F0C8FCDA
:1009000010BD0E4B0E4819680140196018680D495A
:1009100001431960596859600423116901240B438C
:100920001361E2E7054B0648196801401960186831
:10093000054901431960EFE700ED00E00070004059
:10094000F0FDFFFF0E0200000502000010B5FFF7EA
:1009500077FE0020FFF7BEFF10BDF7B501270F237C
:100960000D00390004000600800A18408140032071
:100970009C431E4000F0F4FC032271008A40D043E7
:1009800023680192034023602368844603221800F1
:100990002B0013408B40034360462360E368034011
:1009A000A808104088403900B1402D092F40B740B9
:1009B000E360E368019A1843E060636800208B43BA
:1009C000636063681F436760A3681A43A260FEBD4B
:1009D0000F2270B50325040010404600B540944333
:1009E0002368AB4323600223B34025682B430725CC
:1009F000236085429B4128408000824081405B42C9
:100A00009B00E3181C6A94431C621A6A1143196222
:100A100070BD0F23020018409A430E3B8340936140
:100A200070470F23020018409A4310300E3B83405A
:100A300093617047F7B5040015000F220F00810A7B
:100A400011401440234A0191E1008B5052180121BA
:100A50000600089B0800536000F082FC390030005B
:100A6000FFF77BFF1C4B2022012C03DD4022032CCF
:100A700000DD80221A6001221000A040C043174B05
:100A80009968014099602900D5401140A140A540D6
:100A90009F68A41039439960D968A4000840D860C1
:100AA000D968B2400D430E49DD60641803210F255B
:100AB000314089008D40A068A843019DA0608D4011
:100AC0002900A0680143A1605A61196800200A4307
:100AD0001A60FEBD9C05002000E100E0000401401A
:100AE00000000140F8B5002401270C4D6B692E6809
:100AF0001E403B00A3401E4206D0094A6B61E30042
:100B00009B181A68586890470134102CF1D1054B96
:100B10001B68002B01D0FFF767FCF8BD0004014003
:100B20009C0500207804002010B5002000F06EFC29
:100B300010BD000070B5044C2568FFF7F5FF236871
:100B4000AB42F8D1184370BD24060020054B10B508
:100B50001B68002B04D182B21900180000F038FC89
:100B600010BDC0461C06002010B5094A1368002BB2
:100B700008D09C6881688C4207D303D159684468C7
:100B8000A14202D90360106010BD1A001B68EEE795
:100B9000280600208022F0B52A4D52022B689B18AF
:100BA0002B602B68002B03D1274A13680133136095
:100BB0000020264B26491A681860264B224C1B68D9
:100BC0000A6007001900A446002904D064468E6814
:100BD0002468A6421BD9002801D01E480160002FBE
:100BE00014D0002139608A4229D01100002B05D091
:100BF00050685C681900A04200D811000800126813
:100C00001B68002A0ED10360114B1960F0BD2C68DF
:100C100026004C68240C2404B442DCD10F000120CF
:100C20000968D1E7002B01D10260EDE755685E68E5
:100C30001C00B54200D8140004602000DFE7044A1D
:100C40001360E3E724060020200600202C06002085
:100C50003006002028060020F8B50123314E324D21
:100C600033602B68002B08D1FFF794FFFFF75CFF80
:100C70002E4B9842FAD0002402E0FFF755FF040003
:100C80002B68002B0BD1FFF74FFF1430844224D97F
:100C9000FFF780FFFFF748FF8442FBD3EBE75F6875
:100CA000FFF742FF844205D8BBB2834202D91B1A28
:100CB000132BE8D82B685F68FFF736FF844202D811
:100CC000BFB28742F6D82B681A6818692A600022DA
:100CD0005A609A60DA689047D2E72B68002B0CD0F4
:100CE0005F68FFF727FF143F14308742C8D3002303
:100CF00038003360FFF72AFFF8BDFFF715FF070044
:100D0000844202D9FFF746FFB5E7030014339BB2D4
:100D1000984204D9FFF708FF8742FBD9F2E7034F57
:100D2000E5E7C0461C06002030060020FFFF00005B
:100D3000174A10B513681100834211D11B68136064
:100D4000002B04D058681438FFF700FF10BD11487D
:100D5000FAE71A68984201D10A60F7E71900130010
:100D6000002BF6D10C4A1368002B09D10B4A1368EB
:100D7000002BEBD01968984205D01A000B00F7E75A
:100D80001968984201D11160E0E71A000B00EBE707
:100D900030060020FFFF00002C060020280600205F
:100DA000002310B5044A0549180000F041FB01205A
:100DB0004042FFF7CBFE10BD590C000840420F0027
:100DC00070B5FFF7B7FE084B05001C68FFF7B2FED1
:100DD0008542F6D8002223001500040012196B4149
:100DE0001000190070BDC04620060020F8B50400B0
:100DF0000D00FFF79FFE0023070023602B1A1E2B18
:100E00000DD8ADB2FFF790FE8542FBD3FFF78CFE05
:100E10008542FBD8E368206998470020F8BDFFF7BA
:100E20000FFC63680600002B02D1A368002B02D0E0
:100E30002000FFF77DFF28001E4A14386560136804
:100E4000874211D8A3601368A2689A4205D81A4B4A
:100E50001A68030C1B049A4208D02000FFF784FE96
:100E60003000FFF7F5FBD8E70133EBE7BFB2B8423C
:100E70000FD9124A11001368002B02D05F68BD42DF
:100E800014D223600C6013689C42E9D1FFF75EFE28
:100E9000E6E70B4A1368002B02D059688D4202D254
:100EA00023601460DCE71A001B68F4E719001B6874
:100EB000E2E7C0462006002024060020300600207D
:100EC0002C06002070B50400FFF7BAFB636805002C
:100ED000002B02D1A368002B02D02000FFF728FFCF
:100EE0002800FFF7B5FB70BDC36870B504000D00A6
:100EF000002B0FD0FFF7E6FF1D2D0CD8FFF714FED7
:100F00000600FFF711FE801B80B28542F9D8E36826
:100F10002069984770BDFFF70DFE29182000FFF7E4
:100F200065FFF7E7F7B504000D00161E02D1FFF7C5
:100F3000DBFFF7BDFFF784FB63680090002B02D155
:100F4000A368002B02D02000FFF7F2FEFFF7F2FDAE
:100F50000B4B07001B680193FFF7ECFD8742F5D8A8
:100F6000019B28186060F318A84207D32000A360F3
:100F7000FFF7FAFD0098FFF76BFBDAE70133F5E7BF
:100F80002006002010B50B4C00F074F90121200060
:100F9000FFF7E3FC2000FFF73CFD01210648FFF7C7
:100FA000DCFC01210548FFF7D8FC01210448FFF7CC
:100FB000D4FC10BD0C000050050400500604005085
:100FC00007040050704700000D4B10B51A680C0064
:100FD000002A0ED101321A60032803D17146094854
:100FE0000AF00AFD210008480AF006FD07480AF049
:100FF00003FDFFF725FBFFF7E5FFFFF7A7FCC04662
:10100000340600203ACF00083ECF00085ACF00082F
:1010100010B500F09BFF03480AF0EEFC00F080FFE3
:10102000002010BD68CF000810B500F0D9F8FCE72B
:101030001FB5FFF705FB002480210D4B0F221B6815
:10104000490002930B4B019400930B480C2300F0D2
:1010500035F8C021094B07221B68C9000293084BD1
:101060000194009307480C2300F028F8FFF7B8F923
:101070001802002029100008380600201C02002059
:10108000111000083807002070B50B79092B03D91F
:1010900009490320FFF798FF0A004C7908320368DA
:1010A000002B02D18B60026070BD1D00083D6D7980
:1010B000AC42F7D31800F2E728CF0008F0B587B0AC
:1010C00005000291039204930F2A30D803220B00EB
:1010D000024003D004239B1AC518CB1A0322303BCD
:1010E00093430593EC18049B1B0717D42D6003E072
:1010F0001B600433A342FBD3FFF7A2FA0123274A64
:101100000190990056581FB2002E13D00133212BA5
:10111000F7D10198FFF79CFA8B2709E02B00E9E74C
:101120002000FFF77FF80198FFF792FA32E01627C8
:101130007F422FE08C50059B2A000D99E7800C9888
:10114000FFF706F9029B0121E3620E9B144AA3629A
:10115000039B2060637101235B42E3611368656256
:1011600001331360049B2671A660E6602661666108
:10117000A66126620B42D3D10B212000FFF752F863
:10118000049B5B07CFD40198FFF762FA6B469889FE
:10119000FFF786F8380007B0F0BDC046C004002055
:1011A0007C04002070B5040000F0ADF905002000BB
:1011B000103000F001FF280070BD70B504000D0074
:1011C000160032002900200000F089F9002800D024
:1011D00070BD20000121103000F0BEFEF1E70000DC
:1011E000F8B50B4D02262C6823041B0E02D1E6B283
:1011F000731E9E41FFF724FA2B6807009C4202D120
:101200003000FFF767FB3800FFF722FAF8BDC04651
:101210002002002070B5094D04002B5CFF2B03D188
:1012200007490320FFF7D0FEFFF70AFA2B5D0133D1
:10123000DBB22B55FFF70CFA70BDC0462002002030
:1012400028CF000870B5094D04002B5C002B03D19A
:1012500007490320FFF7B8FEFFF7F2F92B5D013BCA
:10126000DBB22B55FFF7F4F970BDC0462002002019
:1012700028CF000810B500F0C5FE802100204905E8
:1012800000F06EF800F004F800F050F910BD000016
:101290008022274B5200196810B50A431A60D9689A
:1012A000244A25481140D96019680140196000217D
:1012B00099611868013101431960042118680842D6
:1012C000FCD002201D490C682043086001200C68F6
:1012D0002043086080201A490001086010204C68F3
:1012E0000442FCD1D968D960D968D960D968D9607D
:1012F000D9680A40DA608822D968D2030A43DA60E2
:101300008022196852040A431A60802292041968E4
:101310001142FCD00322D9689143D960D9680A43AD
:101320000C21DA60DA680A400C2AFBD110BDC046F5
:1013300000100240FFFF02FFFEFFF2FE002002400D
:1013400000700040004870470048E801024B1B5CF9
:10135000024858437047C0469CCF00080048E80147
:1013600000B5032807D80B4B07F084FD02080C10CA
:101370009A6B11439963BFF34F8F00BD5A6B1143B2
:101380005963F8E71A6B11431963F4E7DA6A1143FA
:10139000D962F0E70010024000B5032808D80B4BD3
:1013A000C94307F067FD02060A0E9A6B1140996364
:1013B00000BD5A6B11405963FAE71A6B114019636B
:1013C000F6E7DA6A1140D962F2E7C046001002403F
:1013D00010B5032914DC0C4B0001C4581B185B68C2
:1013E00000201A400B000C339B00E3185A600223C4
:1013F0008B4022699A432261E2681343E36010BD87
:1014000001204042FBE7C046A0CF0008024B00018C
:10141000C358586A7047C046A0CF0008034B00016C
:10142000C258012311680B4313607047A0CF000816
:1014300070B504000E0000281DD180250F49ED0570
:101440000CC10121FFF78CFF0D4B2C6020006C605C
:10145000EB62FFF77BFF310007F02AFD01238022BA
:101460000138A8626B61074B120220001A60FFF777
:10147000D5FF200070BD01204042FBE7380D002061
:10148000FFFF000000E100E0F8B5802400250227FE
:10149000E4052369E6681E403A00AA40324207D0BC
:1014A000E36829009343E360064B1A685868904745
:1014B0000135042DF0D1044B1B68002B01D0FEF741
:1014C00093FFF8BD380D0020780400208368016880
:1014D0005A1C82604268013A1340C85C7047F8B5F4
:1014E000070015000C001600002E03D0BA68FB6838
:1014F0009A4201D1A81BF8BD3800FFF7E7FF013E73
:1015000020700134F0E7C36830B5426884681B1B63
:10151000934208D0C36804685D1CC5600020013A8E
:101520001340E15430BD01204042FBE710B50020DC
:1015300005F056F8012005F053F805F07DF910BDCF
:10154000F0B591B00F9000200AF0EEFC0C900D91D8
:101550000AF0EAFA04000AF0E7FA05000AF0E4FAF1
:1015600006000AF0E1FA07000AF0DEFA332107F07C
:101570000FFE174B0B91380065210A9307F008FE08
:1015800009916A21134B3000FF31089307F000FEE8
:10159000114B079128006521069307F0F9FD0F4BC9
:1015A000059120006521049307F0F2FD3239039183
:1015B00080210B4B0B4A029309010C9B0D9C0F9849
:1015C00000930194084B0AF0E1FA11B0F0BDC04657
:1015D000E2D60008EED60008FDD600080CD70008B9
:1015E00015D7000888D600087BD60008F0B50D0096
:1015F000B94C0600A544B94968680AF045FB0028C3
:1016000000D0FDE0022E04DCB5480AF083FA012484
:1016100014E0A968B3480AF037FB041E12D102A9EE
:10162000B14800F00DFEB14D02A90822280000F0DB
:1016300033FD2900AE482C740AF0DEF92000AD4BD2
:101640009D44F0BDA968AC480AF01EFB041E0DD1F4
:1016500002A9A54800F002FEA44D02A90822280014
:1016600000F01AFD2C742900A448E5E7A968A448F5
:101670000AF00AFB041E0ED102A99B4800F0FDFDF2
:101680009A4D02A91022280000F006FD6B1CDC77A1
:1016900029009C48D0E7A9689B480AF0F5FA041E87
:1016A0000ED102A9904800F0F7FD904D02A910223A
:1016B000280000F0F1FC6B1CDC7729009348BBE7A5
:1016C000A96893480AF0E0FA041E0ED102A98648E0
:1016D00000F0F1FD854D02A91022280000F0DCFC8D
:1016E0006B1CDC7729008B48A6E7A9688A480AF0BA
:1016F000CBFA041E0DD102A97B4800F0EBFD7B4D17
:1017000002A90422280000F0C7FC2C72290083489B
:1017100092E7A96882480AF0B7FA041E15D18148F9
:101720000AF06AF9704800F0EFFD012809D000289E
:1017300003D0022807D07C4800E07C480AF0EAF990
:101740007CE77B48FAE77B48F8E7A9687A480AF023
:101750009BFA041E05D1644800F0F9FD01007748AA
:101760006AE7A96876480AF08FFA041E08D15E4835
:1017700000F010FE7349002800D1734973485BE7FD
:10178000A96873480AF080FA041E08D1564800F090
:1017900024FE6C49002800D16B496E484CE7A968CB
:1017A0006D480AF071FA041E05D14F4800F038FE6A
:1017B00001006A4840E7A96869480AF065FA041E12
:1017C00005D1494800F04FFE0100664834E7A9689A
:1017D00065480AF059FA041E05D1434800F08EFE10
:1017E0000100624828E7A96861480AF04DFA041E22
:1017F00000D009E73C4800F0A6FE01005D481BE769
:101800005D4968680AF040FA002800D0B3E1022E72
:1018100001DC5A48F9E6A96832480AF035FA041E94
:1018200011D1032E01D15648EFE6E8680AF036FAE6
:101830001028F8D1E96802A800F069FC02A92A483A
:1018400000F0F8FCFAE6A9682B480AF01DFA041E1D
:1018500011D1032E01D14B48D7E6E8680AF01EFAF1
:101860001028F8D1E96802A800F051FC02A91E482E
:1018700000F0EEFCE2E6A96821480AF005FA041E31
:1018800011D1032E01D14048BFE6E8680AF006FAFC
:101890002028F8D1E96802A800F039FC02A9124812
:1018A00000F0E5FCCAE6A96817480AF0EDF9041E45
:1018B0006ED1032E01D13548A7E6E8680AF0EEF9AB
:1018C0002028F8D1E96802A800F021FC02A9064806
:1018D00000F0DCFCB2E6C0466CECFFFF33D9000838
:1018E000B4CF000829D00008400D0020840E00204D
:1018F00030D00008941300003CD0000843D000080A
:101900004FD0000856D0000862D000086AD0000806
:1019100077D000087FD000088CD0000894D0000851
:10192000A1D00008A7D00008BCD00008B6D000089D
:10193000B8D00008BAD0000845D10008C4D00008CB
:10194000D2D0000885D60008B0CF0008D6D0000855
:10195000DFD00008E6D00008FAD0000800D1000867
:101960000CD1000815D1000829D1000832D1000897
:1019700041D1000848D1000854D1000858D10008CE
:10198000D5D10008FED1000827D2000850D20008A7
:10199000A968AB480AF078F9041E11D1032E01D1D1
:1019A000A84832E6E8680AF079F92028F8D1E96811
:1019B00002A800F0ACFB02A9A34800F076FC3DE6CB
:1019C000A968A2480AF060F9041E11D1032E01D1C2
:1019D0009F481AE6E8680AF061F90828F8D1E96832
:1019E00002A800F094FB02A9974800F06DFC25E6E0
:1019F000A96898480AF048F9041E1DD1032E01D1A8
:101A0000954802E69549E8680AF03EF9002811D0A9
:101A10009349E8680AF038F90121002806D0914975
:101A2000E8680AF031F902210028E9D1864800F07F
:101A30005AFC03E60100F9E7A9688B480AF024F98B
:101A4000041E0DD1032E01D18848DEE5E86809F0B7
:101A50000FFDC1B20F29F7D87B4800F067FCEDE518
:101A6000A96883480AF010F9041E16D1032E01D18B
:101A70008048CAE5E96880480AF006F900280AD0DB
:101A8000E9687E480AF000F921000028F0D16E488C
:101A900000F06FFCD2E50121F9E7A96878480AF067
:101AA000F3F8041E16D1032E01D17648ADE5E9689E
:101AB00071480AF0E9F800280AD0E9686F480AF08E
:101AC000E3F821000028F0D15F4800F075FCB5E58F
:101AD0000121F9E7A9686C480AF0D6F8041E0CD178
:101AE0006A48032E26D021002200A8680AF008FACE
:101AF0000100554800F083FCA0E5A96864480AF09D
:101B0000C3F8041E0DD1032E01D162487DE5E868BB
:101B100009F0AEFCC1B20F29F7D84B4800F092FC97
:101B20008CE5A9685C480AF0AFF8041E0ED1032EBC
:101B300004D15A4809F0EEFF01347FE5E86809F066
:101B400097FC0100404800F0C6FC77E5A9685448BE
:101B50000AF09AF8041E00D05BE6032E01D151482A
:101B600053E5E86809F084FCC1B20F29F7D836487C
:101B700000F0D6FC62E54C4968680AF085F8041E5E
:101B800030D1022E01DC49483FE54949A8680AF0F6
:101B90007BF800281AD04749A8680AF075F8012197
:101BA0000028F0D1284801F057F80B2800D945E566
:101BB00007F06AF91600120044FD140044FD44FDCC
:101BC00044FD44FD44FD44FD10000E002100E9E702
:101BD00039481AE5394818E5394816E5394814E511
:101BE0003948ABE5394968680AF04EF8041E00D060
:101BF000BFE0022E6CDC02A8FFF7A2FC220002A9C3
:101C0000114801F077F8022701940F4D019928003F
:101C100000F03DFC3900280000F037FC02A8FFF777
:101C20008FFC002202A9280001F064F8023809287C
:101C300072D807F01FF9E17171717171EA71E7E40F
:101C400077D000087AD20008400D00208CD0000820
:101C5000A4D20008A1D00008CDD20008B6D0000858
:101C6000B8D00008BAD0000845D10008EED200086C
:101C7000D2D000080CD3000885D60008B0CF0008E9
:101C8000DFD000082CD30008FAD000084FD300089A
:101C90000CD1000878D3000829D100089CD3000893
:101CA00041D10008C4D30008E6D30008EBD30008F4
:101CB0000AD400080FD4000813D4000836D4000852
:101CC0004FD4000866D400087FD4000899D40008D7
:101CD000032E98D07849E86809F0D6FF01940028CF
:101CE00009D07649E86809F0CFFF01230193002865
:101CF00001D0734889E40227042E86D0286909F0B0
:101D0000B7FBC7B27B1EDBB2DE2B00D87DE7C1B2CA
:101D10006C4809F071FE7AE4280001F02FF80638CB
:101D2000052812D807F0A6F8211171036E6B3E2327
:101D30000022FF33EB5C6449EB184B331A709F238E
:101D40005B00EA5C614809F057FE4223FF33EB5C1D
:101D5000002B00D172E4A0235B00EA5C4023FF3338
:101D6000E95C5B4809F048FE68E45A4809F0D2FE95
:101D7000EBE75949686809F087FF041E73D1022E0A
:101D8000B7DD032E35D04C49E86809F07DFF01949A
:101D9000002807D04949E86809F076FF0028A8D153
:101DA000012301930227042E07D0286909F060FB64
:101DB000C7B27B1EDBB2DE2BA9D8484E019930009A
:101DC00000F065FB3900300000F05FFBAD682800D3
:101DD00009F064FF2900C2B2300000F08BFF023826
:101DE000092815D807F046F808141414141411140F
:101DF0000E0B02270190E0E73948FFF706FC39484F
:101E0000FFF703FC3848FFF700FC3848FFF7FDFBFD
:101E1000300000F0B3FF0638052812D807F020F88C
:101E20001F11F503F2EF3E230022FF33F35C264936
:101E3000F3184B331A709F235B00F25C234809F0C0
:101E4000DBFD4223FF33F35C002B01D1FFF7F6FBF0
:101E5000A0235B00F25C4023FF33F15C81E71D4867
:101E600009F058FEEDE72249686809F00DFF041EED
:101E700009D1022E02DD1F48FFF7C7FB174800F00B
:101E800025FF1D485AE41D49686809F0FDFE041E3F
:101E900006D1022EEFDC114800F0BCFDFFF7CEFBAF
:101EA0001749686809F0F0FE041EE4D1022EE2DC56
:101EB00000F0EAFDFFF7C2FBA3D40008A1D400089C
:101EC000A7D40008D8D400088B0D002083D50008C3
:101ED000BED50008A0D500080ED60008400D002091
:101EE0001CD5000834D5000857D5000870D5000867
:101EF00011D600081CD6000853D6000870D600087A
:101F000075D6000810B5012804DC044809F002FE6B
:101F1000012010BDFFF76AFBFBE7C0461CD6000896
:101F200000B50748A1B000F05BFE064809F0F2FDDD
:101F300080226946044804F0DDF9002021B000BD8C
:101F4000400D002021D7000840D7000810B500F050
:101F5000F5F8FEF725FF10BD70B504000D00FEF783
:101F60006FFB23680600002B06D1013B2360FEF7C0
:101F70006FFB0125280070BD002D18D00D4B0221EC
:101F80001D682800FEF74EF9236801330AD12B00A3
:101F9000083323600023AB603000FEF759FBFEF7E7
:101FA00023FAE6E729002000FFF76EF8F4E7FEF7D2
:101FB0004FFBDFE77404002070B50500FEF740FB1F
:101FC0002C680600002C03D13000FEF741FB70BDE9
:101FD000631C02D100232B60F6E72368083C2B60CA
:101FE0000B212000FEF71EF92B68002B01D1013BCD
:101FF0002B6064793000FEF72BFB2000FEF750F9D0
:10200000E5E70000194B1A4AF0B59A601A6A1949B7
:10201000C02511408022D2030A4380211A62DA6966
:10202000C9051202120A0A43DA610322002194460A
:10203000FF27AD0064463E000C40E400A6408A083D
:102040000D489200121850590131B0434026A64065
:10205000304350512029EDD1102219690A431A61E9
:102060008022596992000A435A61F0BD00ED00E0F8
:1020700000000008FFFF00FF00E100E0002807D09B
:10208000044B0A099A5C02700F2211405B5C43709A
:10209000022070477AD70008F8B5050056000028DE
:1020A00003D00C008F18BC4201D13000F8BD21785C
:1020B0002800FFF7E3FF01342D18F4E703001A7836
:1020C000002A01D1181A70470133F8E71F220421B2
:1020D000037813400933A932934201D39B1ADBB230
:1020E000013952080029F7D11F2240781B01104006
:1020F0005BB209300431A932904201D3801AC0B2D8
:10210000013952080029F7D11843C0B27047F8B519
:10211000070008000E000124FFF7D0FF002504404F
:10212000AC4202D14508AC4201D12800F8BD6000A4
:102130003018FFF7CBFF38550134F4E707B5042119
:1021400001A804F07BFB019800F028F807BD00000F
:1021500070B50600884203D30F490320FEF734FF11
:102160000D1A2800FEF7D2F86B1E1D420AD1C0B22C
:1021700001248440013C00F019F820408542FAD93E
:10218000301870BDC3B21E2B02D8C0B20130EFE7C9
:1021900001246442EFE7C04628CF000810B50100D3
:1021A000014805F075FD10BDA80E00201449F0B5DA
:1021B0004B680A681C008E685200CD687440520853
:1021C00062405400680854406840604001250700A0
:1021D0000A692F407F423A405640820262404C6971
:1021E0000B6027407A408A60120AD318C8608A6957
:1021F00058402B405B4213404E605840F0BDC046F3
:10220000A80E002010B50121FFF7A6FE10BD7FB576
:102210000B2301AC0600029020000D0023702172F8
:1022200002F02AFC0A23200002962572237002F095
:1022300023FC7FBD10B50730082209F011FB10BD4B
:102240000B0010B5C11D0822180009F009FB10BDD4
:1022500010B50F30082209F003FB10BD0B00010080
:1022600010B50F310822180009F0FAFA10BD10B5A8
:102270001730102209F0F4FA10BD0B00010010B560
:1022800017311022180009F0EBFA10BD10B52730F5
:10229000102209F0E5FA10BD0B00010010B527313E
:1022A0001022180009F0DCFA10BD10B537301022EA
:1022B00009F0D6FA10BD0B00010010B5373110221D
:1022C000180009F0CDFA10BD10B54730042209F00E
:1022D000C7FA10BD0B00010010B5473104221800E9
:1022E00009F0BEFA10BD30B585B00D000400FFF74F
:1022F00089FF002301A80370057102F0BDFB2000D7
:10230000FFF75AFE05B030BD30B585B00500FFF7C8
:1023100079FF002301AC2000237002F017FB247921
:102320002800FFF749FE200005B030BD30B585B06C
:102330000D000400FFF766FF142301A80370057168
:1023400002F09AFB2000FFF737FE05B030BD30B534
:1023500085B00500FFF756FF142301AC2000237061
:1023600002F0F4FA24792800FFF726FE200005B0D9
:1023700030BD30B585B00D000400FFF743FF0223E8
:1023800001A80370057102F077FB2000FFF714FE2F
:1023900005B030BD30B585B00500FFF733FF02232F
:1023A00001AC2000237002F0D1FA24792800FFF755
:1023B00003FE200005B030BD30B585B00D0004002F
:1023C000FFF720FF072301A80370057102F054FBFB
:1023D0002000FFF7F1FD05B030BD30B585B0050038
:1023E000FFF710FF072301AC2000237002F0AEFAC4
:1023F00024792800FFF7E0FD200005B030BD30B59E
:1024000085B004000D00FFF7FDFE032301A8037053
:10241000456002F031FB2000FFF7CEFD05B030BD76
:1024200030B585B00500FFF7EDFE032301AC2000B9
:10243000237002F08BFA64682800FFF7BDFD2000CE
:1024400005B030BD30B585B00D000400FFF7DAFEF1
:10245000162301A80370057102F00EFB2000FFF7A0
:10246000ABFD05B030BD30B585B00500FFF7CAFE45
:10247000162301AC2000237002F068FA24792800AA
:10248000FFF79AFD200005B030BD417170478171A2
:10249000704730B585B004000D00FFF7B3FE1B2375
:1024A00001A80370456002F0E7FA2000FFF784FD01
:1024B00005B030BD30B585B00D000400FFF7A2FEB9
:1024C0001C2301A80370057102F0D6FA2000FFF763
:1024D00073FD05B030BD7FB50E000500FFF792FE1D
:1024E0000B2301AC2000237002F030FA3000217A77
:1024F000FFF78DFE2800FFF75FFD7FBD30B585B08B
:102500000500FFF77FFE0B2301AC2000237002F0D3
:102510001DFA64682800FFF74FFD200005B030BDAC
:102520007FB505000E00FFF76DFE0B2301AC200008
:10253000237002F00BFA31006068FFF768FE280094
:10254000FFF73AFD7FBD30B585B00500FFF75AFEB5
:102550000B2301AC2000237002F0F8F9247A280044
:10256000FFF72AFD200005B030BD10B50121FFF7AF
:10257000F3FC10BD30B585B00500FFF7F6FF18235A
:1025800001AC2000237002F0E1F96946636828007D
:102590001A0E0A701A0C4A701A0ACB708A70FFF76A
:1025A0000BFD04226946482004F08AF905B030BDCD
:1025B000F0B587B015000F000600FFF7C8FE01A9AF
:1025C0000400280002F052F902AB00280FD00022CC
:1025D0001A709A609A819C73180002F059FC0823C3
:1025E0000B2801D80B4B1B5C180007B0F0BDB1796C
:1025F0007279ADB264B2012904D118701A719F606A
:102600009D81E8E701211A71032219709F609D8165
:10261000DA73E0E78ED70008F0B5102187B0040028
:10262000A027364805F0A4FE7F0002A805F09AFE18
:1026300002AB5888324B984204D103980368DB6898
:102640009847F2E72F4BC0180D28EED806F008FC8B
:10265000070B0EEDEDEDEDEDED101A2F41222A4B9B
:10266000DB689847E1E7284B5B68FAE7039BF8E7EC
:10267000039B200059681A68904704A902A805F036
:1026800043FED2E7039B21790193059304A805F04B
:10269000F1FDCAE74022039BFF32197AA1545B7A0D
:1026A0003F3AE3554223FF3AFF33E254BDE7039B31
:1026B000052B08D1002165790A0061712000FFF720
:1026C00077FF6571B1E7114A04A842804360217920
:1026D000DDE720000E4B039D04AE73802A7BA968C2
:1026E0004B3009F0BDF83E232A7BFF33E2549F2292
:1026F000EB785200A35421793000C8E7C40E0020C3
:1027000056340000A9CBFFFF5C13002062340000A8
:102710006334000037B50A7909680500FFF748FF00
:102720000400042802D12800FFF724FF6A46054B65
:1027300068465380044B01940021595E05F09AFDD0
:1027400037BDC0466234000048130020F0B5C5B064
:1027500002AB040058600E2912D8080006F08AFB6C
:1027600008101B10121010101010193436394100C7
:102770001F4A5A801F4A18000021515E05F07AFD59
:1027800045B0F0BD200004F047FA1B4B1B6898478A
:10279000F6E71A4AEDE7236820005D6800231A0077
:1027A0001900A847236801AE05005F6802003300E6
:1027B00004A92000B84701230F48F35684683278F3
:1027C000A9B204A8A047DBE70D4AD2E70A4B1B6970
:1027D000DDE7094B5B69002BD2D0606FC0B2984730
:1027E000CEE7054B9B69002BCAD078342078F6E7FA
:1027F00056340000481300205C13002058340000B9
:1028000057340000F0B50D788DB00400002D03D0D2
:10281000012D3AD00DB0F0BDFFF799FD01270190D1
:102820002000FFF7A2FE04A80770057102F024F94A
:10283000E31D08930833099308330A93019B07AEFD
:10284000200035703374FFF7B7FB300002F080FAD8
:10285000B8420CD00028DDD0284A02A9284B4A8073
:102860000B2810D103900021595E02A808E0234BE9
:1028700002AA53800A2310000393214B0021595EC2
:1028800005F0F8FCC6E70397EDE72900FFF7B7FD71
:102890002000FFF76AFE002307AE30003371357069
:1028A00002F0EAF82100042347314A7833700B78AC
:1028B00012021A438B7830001B041A43CB781B0694
:1028C00013431BBA736002F0D7F80523337023005B
:1028D00030003733736002F0CFF8062333702300E3
:1028E00030002733736002F0C7F83000357035715F
:1028F00002F0C2F82000FFF75FFB8BE761340000B5
:1029000048130020037807B5042B0AD16A46054B0B
:102910006846538005230193034B0021595E05F05F
:10292000A9FC07BD6234000048130020037807B5F6
:10293000002B02D0012B13D007BD0F4B4278002192
:10294000595E0E4B002A05D168460192438005F07E
:1029500091FCF1E76A465380012301936846F6E74C
:102960004378002BE8D16A46054B01905380024B17
:102970000021595EF2E7C046481300206134000090
:102980006434000037B543780400002B19D1437933
:102990000F4D012B09D16A460E4B68465380052323
:1029A00001930023E95E05F065FC637B002B09D0F1
:1029B0006A46094B019453800023E95E684605F09E
:1029C00059FC37BD6A46034B538006230193F3E756
:1029D00048130020623400006334000007B54378D8
:1029E000002B0ED10378002B0AD16A46074B538087
:1029F00006230193064B68460021595E05F03AFC18
:102A000007BD6A46014B53800723F2E7623400009A
:102A10004813002073B5042605003200194901A8A7
:102A200008F01EFF320001A9002003F049FFE91D54
:102A30000822040003F044FF290024180F31082263
:102A4000200003F03DFF2900241817311022200038
:102A500003F036FF2900241827311022200003F04C
:102A60002FFF2900241837311022200003F028FFFF
:102A7000290032004731201803F022FF2800FFF719
:102A800079FD73BD8AD7000813B5042201A900207F
:102A900003F0FCFE074901A809F0F6F8002807D169
:102AA000040020000021013405F086F94C2CF8D1F7
:102AB00013BDC0469AD7000870B50D00160004007B
:102AC00086B0FFF752FD404B32002B603F4B290090
:102AD0006B603F4B3F48AB603F4BEB60052301F021
:102AE00081FD2000FFF768FA00212000FFF71EFC9F
:102AF00000212000FFF73DFC01212000FFF75CFCD6
:102B000000212000FFF7EFFB02212000FFF7BDFCB2
:102B100000212000FFF7BBFC32212000FFF7B9FCA9
:102B20000C212000FFF7C6FC42230020FF33E054B5
:102B3000042201A9019003F0A9FE042205002749FF
:102B400001A809F0B2F8061E3BD1E11D08222800B9
:102B500003F09CFE21002D180F310822280003F0FD
:102B600095FE21002D1817311022280003F08EFE4B
:102B700021002D1827311022280003F087FE2100A4
:102B80002D1837311022280003F080FE21002D1867
:102B900047310422280003F079FE042202A92818F4
:102BA000029603F073FE029B20001DBAFFF7DDFCC6
:102BB000182303A80370456001F05EFF2000FFF7B3
:102BC000FBF906B070BDC046DD2900088529000864
:102BD0002D2900085C130020052900089AD7000859
:102BE00030B5134C85B005001249200004F0C8FD33
:102BF0008021114B06222360104BC9006360104BEB
:102C0000019502930F4B104800930823FEF756FAE4
:102C10000E4B1880002807DD28000D4A0D49FFF7EC
:102C20004BFF002005B030BD01204042FAE7C0460E
:102C300078130020ACD7000898DA00084D27000868
:102C40009FD7000819260008440F002048130020D1
:102C5000441300204C130020F0B58BB06B460600E7
:102C6000D971DD1DFFF781FC012307AC2000237023
:102C700001F06CFE27793000FFF79EF90320002F4A
:102C800019D10E4B0E4A1B8805A8337103AB039272
:102C900043600C4A0C4B4280210000229A5E04954E
:102CA00005F008FB2B783800002B04D1200005F03C
:102CB00059FB6068C0B20BB0F0BDC0467004002084
:102CC00005280008603400004813002010B586B0C5
:102CD0000400FFF74AFC42230022FF33E254413B49
:102CE000FF3B01A8037002F033F82000FFF764F9FE
:102CF00006B010BDF0B542238DB001920022FF3323
:102D0000C25405000E00FFF730FC012309AC20007F
:102D1000237001F01BFE27792800FFF74DF90220F0
:102D2000002F1ED0104B03AA1B8807A82B71019BF4
:102D30000E49137105AB069243600D4A0D4B059188
:102D40004280210000229A5E039605F0B3FA20002B
:102D500005F008FB084B628808209A4201D16068A0
:102D6000C0B20DB0F0BDC0467004002015270008A9
:102D700060340000481300206234000007B50A4B9D
:102D80001B880371684605F0EDFA6B465888074BBF
:102D9000984205D0064BC0184342584108300EBD3A
:102DA0000198C0B2FBE7C046700400206234000006
:102DB0009DCBFFFF37B515000E4A01AB2C321278C0
:102DC00004009A7009221A700B4A59701278002A6E
:102DD00001D00A221A70094A1900107802F058FA34
:102DE000641983B20020A34203D3FF23A3424041CE
:102DF000C0B23EBD8815002072180020FC150020CE
:102E000070B50024284B294A1C70294B1C60294BA3
:102E10001C60294B1C60294B1C7001231370284A2D
:102E20001370284A1470284A1470284A1380284ABC
:102E30001470284A1470284A1370284A284B1178B5
:102E4000901C197051785970C07F991CC87719006F
:102E500010002431243060C860C1100019002C30EB
:102E600000782C310870100019002D3000782D31B9
:102E70000870116B526B19635A631A4B0221187850
:102E800002F016FA184B1C70184B1C70184B1C7073
:102E9000184B1B68002B04D1174A1370174A137084
:102EA00070BD5C629B6AF5E73D140020240200209F
:102EB0002419002038140020241400203514002088
:102EC00025020020F81300202C1800202A140020CE
:102ED000811700200218002026020020C0150020C3
:102EE00088150020FC15002070180020F418002020
:102EF000031800206C180020341400203F14002018
:102F000010B50C4805F098FA0B4B1B78002B07D036
:102F100001220A4B1A700423094A1168994311606F
:102F2000084B1B78022B04D1074A1E3311780B4340
:102F3000137010BDFC13002070180020F81300203F
:102F4000FC1600206E1500206F15002073B5174881
:102F500005F072FA0023164A164C1370164A174DE4
:102F60001278174E2270AA1CD27FE2702A002D32EE
:102F70001278A3742274E374124A134B12781B78EC
:102F80006274022B02D1336B019398470F4B104AA6
:102F900018780432210002F0C5F9A27C736B00207E
:102FA000002A00D1E868984773BDC046A4180020E5
:102FB0007318002074180020341400208815002095
:102FC000B0DA0008721800206E150020FC150020F1
:102FD0004418002070B5174805F02EFA164B174C10
:102FE0001B78174D23706B6A164A63602B002D33D4
:102FF0001B7812782374144B1B7863740123E374D9
:10300000022A00D00023A374104A114B043218780E
:10301000210002F087F900280AD00E4BA27C5B6BDE
:103020000020002A00D1E868984701220A4B1A7054
:1030300070BDC046CC180020341400208C1800202D
:10304000881500206E1500207218002044180020FA
:10305000FC150020B0DA00087318002010B5FFF747
:10306000B9FF0222014B1A7010BDC0467318002030
:1030700013B51D4C2378022B03D01C4BDB6A019344
:1030800098471B4B1A781B4B19781B4B00291DD1F5
:10309000002A02D0194A0331517003225A70237852
:1030A000022B1DD0164B186805F0E4F9154B1B6870
:1030B000984207D3144805F0BFF92023134A11782A
:1030C0000B4313702378022B0AD013BD002A02D0C1
:1030D00004210A4A517004225A702378022BECD141
:1030E000FFF7BCFFF1E7C0466E150020B0DA00081C
:1030F00070180020731800205C1800203018002081
:103100002C140020A0180020CC1800206F150020DF
:103110000B4B07B51B78022B0ED00A4BDB6A0193D1
:1031200098470223084A5370084A5370084A1E33CE
:1031300011780B43137007BDFFF790FFF1E7C0460E
:103140006E150020B0DA0008301800205C1800204E
:103150006F15002013B51D4C2378022B03D01C4B98
:10316000DB6A019398471B4B1A781B4B19781B4B52
:1031700000291DD1002A02D0194A053151700522BB
:103180005A702378022B1DD0164B186805F072F97F
:10319000154B1B68984207D3144805F04DF92023BE
:1031A000134A11780B4313702378022B0AD013BDF6
:1031B000002A02D006210A4A517006225A7023784A
:1031C000022BECD1FFF74AFFF1E7C0466E15002055
:1031D000B0DA000870180020731800205C18002076
:1031E000301800202C140020A0180020CC1800203B
:1031F0006F150020F0B587B005F033F93A4D0600A1
:103200002B78022B5BD0394BDB6A01939847384B04
:10321000384C1B78002B55D0374B384F1968380085
:1032200005F011F9380005F0F1F82B78022B08D0E1
:10323000334F344B3800196805F005F9380005F0B4
:10324000E5F82B78022B03D02F4B1B78002B10D0E6
:10325000122303A90B702D4B187802F019F8294B93
:103260002B4D19684118280005F0EDF8280005F0ED
:10327000CDF82278274B120733D5274A1278002A37
:103280002FD101321A70254B254A1B7804A91370DF
:103290000B70244B4E601B784B701C4B187802F05F
:1032A00000F8214B1E60184B1B78002B05D11F4ADC
:1032B00053701F4A13780133137007B0F0BDFFF746
:1032C000CDFEA4E7194A53700422134B5A70237899
:1032D000002B01D101332370202322781343237064
:1032E000C7E70022CEE7C0466E150020B0DA00081E
:1032F000260200206F15002088180020A418002046
:10330000CC180020A018002070180020FC15002008
:10331000FC130020401400205C180020341400200E
:103320003F1400203D1400202C14002030180020F1
:1033300035140020F0B504000E008FB003920793FF
:10334000039B9E4201D30FB0F0BDA05D751C0238F7
:10335000EDB20828F7D805F0A1FD09001500860098
:10336000A300E5000A0142016B01A5010022E14B27
:103370005A70615DB21CD2B21972A25C0336F6B209
:103380005A72DDE700230B2706AA53729372BF1807
:1033900009AA13703B706B1EE3180B93039B0BA9D8
:1033A00001335B1B0B71D44BD44E1B7806A88B7179
:1033B00033002C331B784B717378CB7133780B72DD
:1033C000CF4BDB7F4B72CF4B1B7801929C460A237D
:1033D00006AA9B18092200971218604601F0B9FF4F
:1033E000C34304905B0708D106AB5B7AC44A737091
:1033F00006AB9B7A33703B78D37709AB1E780521F7
:10340000300005F055FD8021BF4A49421278BF4F78
:103410008A1A0021D2B2013A0692BD4AC3B2BC4612
:1034200010780A000593BB4B1B78059F974209D182
:10343000002903D0B74A1370B54B1870013EAE197E
:10344000F6B27DE7069FBB420ADA60460327591CA5
:10345000C754049FC9B24754012001000233DBB2B4
:103460000132D2B2E1E70121635DAB4A80251370DE
:103470000A009A40A94BA7481A80A34B6D421B78BB
:103480000278EB1A0236DBB2F6B2934200D857E765
:103490005318037004209D4B98549D4B19704FE7AF
:1034A000635D07251A090BAF2A407A700F2213407B
:1034B0003B70B31CDBB2E15C301DF31CC0B2DBB26D
:1034C000E25C235C12021B04134364220B4353434C
:1034D0000C938C4B3900187801F04AFF0536F6B290
:1034E0000540072D09D1854B39781A002832117013
:1034F0007A685A627A780233DA778025824A854977
:1035000012786D42AA1AD2B20B78013A934200DBCC
:1035100016E77E4A8535D5549D1C0133DBB20D700C
:10352000D0547CE07E4BFF201B68002B03D01B682F
:10353000002B00D098478026734A7642127875494E
:10354000B21AD2B20B78023A2E00934200DBF7E6B1
:1035500006256E4AD5545D1CEDB25055D81C087036
:103560003F2107980233DBB20140995433E0635D99
:1035700009A90B71F31CDBB2E55C331DDBB2E35C24
:103580002D021B042B43B51CEDB2655D701D2B4352
:1035900064256B430B930023C0B20C93235C0BAAEE
:1035A0001372584B0992187801F0EBFE564A5949AC
:1035B0001278E43DAA1AD2B20B780636013AF6B276
:1035C000934200DBBCE6514A8735D5549D1C01333C
:1035D000DBB20D70D05401224D4B1A70B0E60F22B1
:1035E000635D0236F6B21A4000D10132FA23FA21A5
:1035F00080209B005343414A890013615B1853614B
:10360000414B44491B784042C31A0A78DBB29342CB
:1036100000D895E6531C0B7008213C4B99540422AA
:10362000404B1A701023404A11780B431370D2E7B5
:103630000022635D0BAD02362A702032F6B21A40CA
:103640002ED16A70DA0601D501222A700F221340AA
:10365000AB702C4B2900187801F09CFE431C00D164
:103660006EE6264F2A783B002C331A703B006A78AE
:103670002D331A70AB782D4AD05C06F0BBF8386356
:103680008020214B23491B784042C31A0A78DBB2C1
:10369000934200D854E6531C0B701C4B092164E77D
:1036A0000122CEE7635D0BA90B70B31CDBB2E25CB9
:1036B000371DF31CDBB2FFB2E05CE35D00021B04CC
:1036C000034313436422802553434B600D4B6D42EB
:1036D000187801F068FE0C4A0E4912780B78AA1A85
:1036E0000536D2B2F6B29A4200D829E6074A8A35A0
:1036F00011E7C0465C18002028140020881500201F
:1037000089150020FC150020021800200117002058
:1037100003180020811700202C1800202A140020F4
:1037200060150020681800206F150020D4D700080D
:10373000F0B58BB0049310AB05921A8800230C00EF
:10374000B44DB54906930B702B80049BB34E591EA4
:103750008B4101785B42317000781A40B04FD3B290
:1037600040093B7005F09AFB080054014C005401DD
:10377000490054015401440101232B80A94B082224
:103780001968A94804F02CFE2888A84B083080B29C
:10379000196808222880301804F022FE2B8808338C
:1037A0002B80A34B5B6904939847A24B82B21A808B
:1037B0002B88120AF054991C01339BB2F2549E4A92
:1037C00089B23000298006ABC9B2126801F0C6FC8C
:1037D0002B88069A591C100A89B2F2547054991C0D
:1037E00089B2100C7054191D03339BB2120EF2549F
:1037F0000026298030000BB0F0BD0122864B1A70E4
:103800008E4B07261B78002BF4D023780125F3403C
:103810008B4E07A94B7033680D704B60894B8A48FB
:103820005A7800780A721A784A721A002C32127882
:103830008A725A19009601F05DFD402328402578D0
:1038400080019D43814B05431A782570002A05D0DD
:1038500000221A702023EAB2134323707C4B6F4F6F
:103860001B687C4E1A0A7B70BA701A0C1B0EFA7019
:103870003B71237830787B71774B784D1B687849A2
:10388000BB711B0AFB71774B40191A7804F0A4FD39
:10389000744B32781B780499D218D2B23270724BC2
:1038A000002971D05E49087800286DD01B78082661
:1038B000002B13D00F2A62D80F2021780B071B0F83
:1038C000D318814303400B4323707B71002391B2D3
:1038D00098B281424ED816000836F6B20021624BEB
:1038E0005F4D19700B009A4257D85E4B1970002932
:1038F00002D001225C4B1A70049B002B1BD0484B5A
:103900001978002917D0544A514B1068741C434A47
:10391000059DE4B2955589B21B68A218002D61D1AE
:10392000059E4C4D2E700292504A019000960498CC
:1039300001F098FB26003A4B364C197806AB8919F2
:10394000002621800293444B484A1B68009601934D
:103950003F4B38001B6801F043FB069A2188100A90
:103960007B187A5458700431100C120E9870DA706B
:1039700021803FE7EC5CF81804720133A8E70A7075
:10398000002304950593A9E70826002AA6D01B78F2
:10399000002BA3D0224B1A70F2E73048C45CE01E23
:1039A00007280FD805F066FA1C0E04191C110E0426
:1039B0006C540133294CDBB2481CE45CC0B20231C8
:1039C000C9B22C540133DBB28DE7481C8446082071
:1039D000234C60546146C9B2F4E70233DBB2F1E72D
:1039E0000133FBE70292002201900092204A9EE7F9
:1039F000049E311E00D1FDE60026B34200D1F9E657
:103A0000D2B2094804F0E8FC3B7801332B80F1E6A0
:103A10000226EFE65C150020701800205C140020E0
:103A200000170020441400205D14002068150020B9
:103A3000B0DA00086C150020481400203D14002066
:103A40002414002088150020FC150020F418002004
:103A50006415002081170020241900200117002080
:103A6000821700200218002003180020781500207B
:103A70004C140020F0B589B002ABDE1D00230124F8
:103A800004A91C4D0190087033706B781A4F4B706D
:103A90002B7832008B702B6B4B606B6B8B60174BF2
:103AA0001B888B81164B18783B0001F046FC154BA8
:103AB000154A5C7054706978144D997031782800FB
:103AC000D97001991961396851609960FA218900AA
:103AD00004F0B9FC280004F099FC084B0C48197854
:103AE0000C4B9B6A984700200B4B1A6814431C60D0
:103AF00009B0F0BD88150020201900205C150020B9
:103B0000FC150020301800205C180020041800204C
:103B10005C140020B0DA0008FC1600200023F0B589
:103B200089B004934D4B03901B780925FF2B4ED091
:103B3000002B01D14A4A13604A4B4B4A1B7805AD12
:103B400012784A4EEB704A4B2A7032781868AA7085
:103B500004F090FC474C484F23686860AB60474BCB
:103B600029001B7838786B7001F02FFC444B3878B3
:103B70001A882368013A5343394A424C136005932B
:103B8000637829002B723378AB72374B1B786B72DA
:103B90003D4B1B686B60009204AB3C4A01F01CFC7F
:103BA000051E17D00B2812D1039B002B0FD0002528
:103BB0000499A9420BD01023354A364C10680343B0
:103BC0002000136004F03FFC200004F01FFC2800DC
:103BD00009B0F0BD21000122A31C3D78DB7F2D310F
:103BE0005BB2A2560978280001F00AFC2A4E227A1C
:103BF000009641B26368280001F089FB28213878DB
:103C0000264F227A61560097636801F080FB164BBD
:103C10001B78002B0FD1A269F368D318204A1360D8
:103C2000E369FA689B181F4A1360184B1878FFF76E
:103C300021FF0500CBE701211B4B61561A781B4B76
:103C400008251878FFF7B6F80028C0D02269F36875
:103C5000D318134A13606369E3E7C0462C180020A9
:103C6000301400203F1400203D1400203C1400209C
:103C70007015002020190020FC15002040140020A1
:103C80002A140020881500202C1400203414002051
:103C9000FC160020F8180020741800208C18002052
:103CA00088180020A018002081170020001700208D
:103CB00030B50D000B4C85B0247803A9E4010C70DD
:103CC000009313002A00FFF733FD002807D1064AAE
:103CD000064B126858711871DA60FFF71FFF05B0C4
:103CE00030BDC046281400202419002030180020C0
:103CF00010B5064804F0A0FB1023054A0120116806
:103D000099431160FFF70AFF10BDC046F818002064
:103D1000FC160020F7B5A34804F08EFBA24CA34D7F
:103D20002278930600D48BE02B68590602D54121F6
:103D30008B432B60092100231140994213D09C48EA
:103D40004678022E03D09B4E7678022E0BD10123AB
:103D50002E68994F9E432E6000263E70974F067145
:103D60003F7886604771964E3078002816D1002B38
:103D700014D1002912D0110700D4B4E08D4908787D
:103D8000002800D0AFE04A78002A03D18D4A1360A2
:103D90008D4A137001232A689A432A6023788B4A3C
:103DA0009B071BD5854B824918780B79002B03D1D3
:103DB000874B1B78834211D2002313703370854BDD
:103DC0001B78002B05D17F4B9C4667461B6801334F
:103DD0003B60012348712968994329601378002BBF
:103DE0002ED0102329680B402AD11370734B784AC8
:103DF0001B7812789A4200D8B7E0082B00D9B4E0BB
:103E000001336E4ADBB21370DB070FD51E2301A905
:103E10000B70714B2C331B788B706F4B5B784B7036
:103E20006E4B187801F034FA6B4B58700120FFF795
:103E300075FE002800D07CE0202223789343237075
:103E400002222B68134201D093432B602B68002B76
:103E500000D09DE001222378134206D093432370C3
:103E60005F4B53481B681B6898470822237813420E
:103E700006D0934323705A4B4E481B689B68984763
:103E8000584B1B78002B06D00422574B1A70102376
:103E90002278134323702022237893432370022235
:103EA0002378134213D093432370504B1B789342D3
:103EB00001D1FFF7D3F823785B0704D4484B4C4873
:103EC0001B685B6898470422237893432370102271
:103ED0002378134206D093432370414B42481B681A
:103EE000DB689847F7BD02231A403B4B3649013344
:103EF000D87F0B78984208D9002A0ED12022237847
:103F000093432370FFF7F4FE48E7002A05D12A4BBC
:103F10001A70384A13680133136000230B702D4B5D
:103F20001B78002B00D035E7264A13680133136055
:103F300030E709231E49204A4B70002313700122E9
:103F400033700B711D4B28681B7890434B71224BCB
:103F500028605B788B701F4B1B78002B00D06FE7BD
:103F6000184A1368013313606AE71C4B0121187863
:103F700001F09EF901232A689A4300232A600E4A21
:103F8000337013700A4A13710C4B1B785371E2E7BC
:103F9000FA210448890004F056FA024804F036FA7F
:103FA0007DE7C046041800206F150020FC16002095
:103FB000301800205C180020811700202502002006
:103FC000701800202419002035140020F813002058
:103FD000240200203E14002088150020FC1500203B
:103FE000F815002002180020681800206E15002027
:103FF00044180020241400204023094A10B51168F9
:104000000B431360074B1B78002B01D0FEF778FFA2
:104010002221054A13780B431370FFF77BFE10BD76
:10402000FC160020701800206F150020F0B595B028
:1040300005910021C64EDBB207933374C54B049043
:104040001B78C5487374C54B0171DB6A1191F2810D
:1040500071807171B16031737173B174716131705C
:1040600006939847BE4804F0E7F9049B1B7858096B
:1040700001380A93062800D93FE204F00FFF070039
:104080003E029B003E029B003E022E02B54B1B7877
:10409000002B02D00123737014E1059BB24DB34F86
:1040A0000498591E89B201303B002A6801F07EF85D
:1040B000AF4C0A9B2A682370059B2000191F89B208
:1040C00011AB01F04BF8059BAA4EE218D31E911ECE
:1040D0001B7809781B0209040B43111F013A097868
:1040E00012780B4312061343119A9A4247D1A24BFE
:1040F00039001A88A14B00932868A14B01F078F889
:104100006379A2791B0212041343227913439D4A57
:104110001360227AE37912021A43637A1B041A436A
:10412000A37A1B061343984A1360E17A974B4A0619
:10413000520F981CC2770F201A00014028321170CC
:10414000227B024019D01A61FA22196992004A436F
:10415000FA2189001A6152185A618D4B059D1293FC
:104160008C4B12A91878113D0D7101F0B3F80023A2
:104170007C4A73700133137003E00122E3E70723E5
:104180007370854B854C1B78002B00D0BAE1844BB3
:104190001B78022B02D1200004F04EF92379002B6A
:1041A00006D1804A203311780B431370FFF7B2FD1C
:1041B00015B0F0BD754B10A92D331B788B7033797A
:1041C0004B7009230B70784B1B78002B01D00A230E
:1041D0000B70704B187801F05BF8059A0D3A131CC0
:1041E000120400D500231BB2834200D952E7049B7E
:1041F0005A1C597853781B0219439378D2781B04C0
:104200000B4312061A43604B06921B6893425ED022
:10421000664B1D68002D01D10B233CE72B68069AE5
:10422000934252D12B1D089310330E9301236E6AD3
:104230000B93049B059A5B791C070993230F0D933D
:10424000049B9B18DA1E14789A1E1278240212041A
:1042500014431A1F013B12781B7814431B06234397
:104260000F93049B049ADB7997791B021F43BF1BB2
:10427000BBB20C936B463027DF5F059B191F89B2D9
:1042800011AB002F2DDB029301230C9A0093971999
:10429000069B089A0197049800F0A2FE119B0F9AC2
:1042A0009C1A63425C41E4B2112310A90B70394B94
:1042B000187800F0EDFF0C9A254B824225D30A2294
:1042C0005F615A70FFF798FE72E7AD6AA2E7384B5C
:1042D00000251E6800230B93284B0E93284B089350
:1042E000A7E7802201245202B018C7190293089A46
:1042F000069B01970094049800F072FE119B0F9AA0
:104300009342D1D037000024CEE7002C00D1E2E068
:1043100000220B995A70997009999A60C906C90FC1
:1043200059710D491A734A7022495F610A60224926
:104330000A700B99012900D07EE002321A706B6A74
:10434000BB423BD1002F39D00822014B5A70B9E74C
:10435000441800207318002030180020B0DA00083C
:10436000CC1800203D14002048140020FE15002029
:10437000FD1500205C1800206C1500204C14002056
:104380007815002074150020641500208815002081
:104390000A160020FC15002070180020FC130020D5
:1043A0006E1500206F150020721800206C18002078
:1043B0003814002024140020021800206F622422E8
:1043C0006B469B18564A1E781378012B53D1B306BF
:1043D00008D50021534B1970099B9B06DB0F137105
:1043E000514A93740F230D9A1E40059B0832043BDB
:1043F0009B1A002B69DD0D9C0599049B09340D1B4C
:104400009B5C4949043DEDB2CB70002B45D1002E99
:1044100035D1049BA9B218190123444C0093089A82
:10442000069B0294019700F08BFE2A0031002000C9
:10443000079BFEF77FFF2BE03D490A9C08681F2180
:104440008C4321003B4CA0290ED1012222701A700E
:10445000874206D1002F04D00423374A11780B433A
:104460001370334B1F60AAE722701A708742F8D18D
:10447000002FF6D068E700222A4B1A70B2E7042218
:104480002D49087802430A70254A1371264A93740D
:104490000223294A11780B436DE6002E04D0079BB6
:1044A00008210498FEF746FF049B204E18190124AA
:1044B000069BA9B20296019700940E9A00F040FE66
:1044C000194B9E601D735C73E2E7002EE0D0079BE2
:1044D00008210498ADE70C2238E7144C0499059A9A
:1044E0000131200003F078FF032333700023059D82
:1044F0007370013DB4603573CAE701237370FFF731
:104500007BFD3EE6064B1B79002B00D043E60B4BB0
:104510001A780B4B1B789A4200D83FE63BE6C04620
:10452000301800208117002044180020FD150020BD
:1045300038140020F41800206F15002025020020F8
:104540002402002010B5134B86B01B7802AA13700A
:10455000114B02A95A7888814A701A788A701A6BAE
:104560005B6B0392019304930C4B187800F041FFAE
:10457000FA210B4C8900200003F065FF200003F0B6
:1045800045FF01230020074A11680B43136006B062
:1045900010BDC0463414002088150020FC150020F2
:1045A00004180020FC16002010B504000A4B080077
:1045B000DB6B51B222009847FA21084C8900200099
:1045C00003F041FF200003F021FF0123044A0020F3
:1045D00011680B43136010BDB0DA00080418002006
:1045E000FC160020F0B51D00032385B007000C0069
:1045F00016000193002900D1F9E00B68002B00D1CF
:10460000F5E04B68002B00D1F1E08B68002B00D166
:10461000EDE0CB68002B00D1E9E0280000F034FE8B
:104620000A230193002800D1E1E00022714B280009
:104630001C60714B03AC1E60704B714E1A70714B55
:1046400021001A70704B35701A60704B1A70704BE5
:104650001A60704B1A600B23237000F019FE431E82
:1046600098416D4B2100187008233078237000F0BA
:104670000FFE0523694D210028703078237000F06B
:1046800007FE0C23687021003078237000F000FED4
:104690000D23E86021003078237000F0F9FD0E232F
:1046A000286121003078237000F0F2FD0F2368614B
:1046B00021003078237000F0EBFD1023A861210069
:1046C0003078237000F0E4FD1323E8612100307896
:1046D000237000F0DDFDAB1CD87714232100307867
:1046E000237000F0D5FD1523686221003078237017
:1046F00000F0CEFD2B00283318701A2321003078EB
:10470000237000F0C5FD2B002C3318701B232100F3
:104710003078237000F0BCFD2B002D3318701C2363
:1047200021003078237000F0B3FD1D2328632100A1
:104730003078237000F0ACFD0124686300213078EC
:1047400000F0B6FD6B1CDC770A2306220A216B60A1
:10475000334B2A721A72EA685960DA602A691A6160
:104760006A695A61AA699A61EA69DA611B19DC7798
:10477000FEF746FB2B4D2C49280003F041FEFA21A1
:104780002800890003F05FFE2849294803F038FE1D
:104790002849294803F034FE2849294803F030FE0F
:1047A0002849294803F02CFE03F05BFE274B284DD7
:1047B0001860284B38003B60274BBB60274B3B61A0
:1047C000274B7B60274BFB602B68019398476B69F5
:1047D0000193984703F0F7FD234B20001C70AB6D4D
:1047E00001939847EB6A019398470023019301983E
:1047F00005B0F0BDF8150020601500206F150020F1
:10480000FC1500206E150020FC16002072180020F8
:104810002C140020301400203C140020C01500206F
:104820008815002004180020153D0008F13C000800
:10483000F81800204D2F0008A4180020D52F0008DC
:10484000CC180020012F0008FC1300207015002058
:10485000B0DA0008F53100082D4000085531000895
:10486000113100087130000871180020F0B50E26D3
:104870008DB02E4A059004ABF61853780D003370B6
:104880000F2304A912785B181A700320002D43D05F
:10489000274A09A91278274C0392274A274F1278F2
:1048A000049200220A70264A12784A70254A10683B
:1048B00048606078087220782C34487220788872BA
:1048C00038780092320000F015FD237808A98B702B
:1048D00033784B7009230B701B4B1B78002B01D0D6
:1048E0000A230B70049A039B944638786344DCB225
:1048F00000F0CEFCC0B26870A0420FD3001B28703D
:104900000E23002104AA9B18595622000598FEF791
:1049100051FA43425841C0000DB0F0BD0024044B91
:1049200028701C70044B1C70EAE7C046C0150020BC
:10493000811700208815002002180020FC15002097
:1049400028140020241400207218002013B503231B
:10495000041E19D00078013B1E2815D804F08AFAED
:104960001016181A1D1F2224262831373D3A4044BC
:10497000474A4D5053565A585C5E606265686C00F9
:104980002E4B1B7823710023180016BD2C4BF8E723
:104990002C4BF6E72C4B1B6802E02C4BFBE72C4B17
:1049A0006360F0E72B4BFBE72B4BEAE72B4BE8E789
:1049B000192301A90B702A4B187800F069FC60607C
:1049C000E1E7284B0434243306CB06C4DBE7043488
:1049D000254BF8E701A91723ECE701A91623E9E71E
:1049E000204B0133DB7FCDE71E4BDB68D8E71D4B47
:1049F0001B69D5E71B4B5B69D2E71A4B9B69CFE775
:104A0000184BDB69CCE7184B5B78BBE7154BFBE732
:104A1000154BB6E7134BB4E7144BBCE7144BBAE79E
:104A2000144BB8E70F4B5B68BAE70E4B1B7AA9E74C
:104A30000C4B5B6B6360A6E70B4BFAE76E1500202F
:104A40003D14002028140020741500206415002057
:104A5000781500204C1400207118002072180020D6
:104A6000FC15002088150020C01500202419002006
:104A7000381400206C18002070B5040086B000289F
:104A800000D1C3E00120A04B1B68034200D0BEE070
:104A900020781E2800D934E104F000FA1F004500F8
:104AA00049004C00500053005B0061006900330175
:104AB0006C009800BB00AC00C000C800CC00D00067
:104AC000D400D800DC00EB000C01FE001A011D012F
:104AD0003301200126012C013001257900248B4B64
:104AE0001D70A54203D0022D07D020008FE0884B17
:104AF000DB6A03939847002089E0864B1C70844B47
:104B0000DB6A03939847844B844D1900844828310D
:104B100009781A7A0078009549B25B6800F0F7FBD3
:104B2000FEF79CFAE1E722797E4B1A70E3E72279DF
:104B30007D4BFAE762687D4B1A60DCE762687C4B6C
:104B4000FAE76168002961D010227A4803F044FC3A
:104B5000D1E76168002959D010227748F6E720791B
:104B6000764B18706A4B9B6D03939847C3E7227985
:104B7000734BDAE7237A684D04A90B702B00684E5B
:104B80002D331B78307806224B7000F098FB0028FC
:104B90003CD02B000434243306CC06C35B4B1B787B
:104BA000022BA8D15F4B1B78002BA4D0584BDB6A9B
:104BB000039398472821594B2A7A695630780093F5
:104BC0006B6800F0A4FBFEF749FA94E7237A04A986
:104BD0000B70514B06222D331B784B70504B1878BD
:104BE00000F06DFB002811D0564B0434243306CC62
:104BF00006C380E7636804A9049301230B71484B43
:104C0000187800F06EFB002800D074E7032006B08F
:104C100070BD636804A904930023EFE72279531E53
:104C20000E2BF3D83C4B0133DA7764E762683A4BDA
:104C3000DA6060E76268384B1A615CE76268364B9D
:104C40005A6158E76268344B9A6154E76268324BA4
:104C5000DA6150E7237904AD2B70314B05221878C7
:104C6000290000F02CFB0028D0D02A78354B5A7050
:104C700041E72379284C04AD2B7023002C331B789B
:104C80000422AB70264B2900187800F018FB00288E
:104C9000BCD02B7863702EE7237904AD2B70204BAA
:104CA00008221878290000F00AFB0028AED02A78E4
:104CB000244B3AE7237904AD2B70194B072218785F
:104CC000290000F0FCFA0028A0D02A78124B2CE72B
:104CD00062681D4B30E762681C4B2DE76368194A18
:104CE00053600D4A536006E72379164A13720A4A45
:104CF000137200E76268084B5A63FCE66268114B66
:104D0000FAE7022083E7C046FC1600206E1500205B
:104D1000B0DA000870180020881500208C180020D8
:104D2000FC1500203D1400202814002074150020DC
:104D300064150020781500204C1400207118002004
:104D400072180020C01500202419002038140020FB
:104D500073B5041E01D1032076BD404D296800299A
:104D600001D00120F8E73E4E0C22300003F044FB56
:104D700001232078737003286ED804F07BF8023B7F
:104D8000556010232D681D40EBD16368002BE2D0E5
:104D9000A368002BDFD0E368002BDCD0FEF730F8EF
:104DA0000823304A11780B4310211370237862686E
:104DB00033702D4B1A602D4BA2681A602C4BE268A1
:104DC0001A602C4B6156187800F0F6FA2A4B2A002C
:104DD000587001A805702B002900FEF769FF002814
:104DE000BAD000220821254B1A701E4A13788B4333
:104DF0001370B1E708231B4A0120117830700B4370
:104E000013701F4B1F491C7880235B421B1B0A78C1
:104E1000DBB29342E5D913180B7002211A4B995457
:104E20001A4B1870002097E702230E4A337011784E
:104E300006330B431370A088FFF784FBCFE70323EF
:104E4000084A3370117805330B431370227BA08816
:104E5000A168FFF7A9FBC2E70220C2E7FC16002009
:104E60005C1800206F1500206815002044140020F5
:104E700048140020FC150020881500207018002020
:104E800002180020811700200117002003180020BD
:104E9000F0B5040089B0002803D10325280009B02B
:104EA000F0BD464B01251B680193002BF6D1444E03
:104EB0001900300005AF14223B7003F09DFA7570A5
:104EC000404B26781D70AE421BD0002E04D0032E1E
:104ED0002AD0019E370035E01F223B4B2E001D706B
:104EE0003B781A40402313433B700E272379E75742
:104EF0000193A3680293A3890393019BE02BCCD871
:104F000020E0E27B304B1A701F223B781A4080234E
:104F10005B4213433B700E272379E7570193A36845
:104F20000293A3890393E8E7274B3A781D70202367
:104F30005B4213433B700A272E006368E7570293D6
:104F400023890393012307A90B70204B02252C33DF
:104F50001B788B701E4B187800F09AF9002E9DD0AC
:104F60001C4B1B78002B14D1B84200D23800174BD1
:104F700006AD28702C331B780422AB70144B29002B
:104F8000187800F09CF9002800D186E72B780F4AAA
:104F90005370039B029A019905A8FEF789FE051E2E
:104FA00008D12278064B1A7001230B4A11780B4363
:104FB000137073E70022094B1A706FE7FC1600208C
:104FC000301800202502002024020020881500202F
:104FD000FC150020281400206F15002070180020F8
:104FE000F7B50E000700019208AA1B4C1178099A28
:104FF0006171190A194DA371E171190C1B0E6372CD
:10500000130A2800A272E372130C120E2373627348
:10501000E673217203F0B0FB2800019903F0BCFB9A
:1050200028002100102203F0BEFBF2B23900280054
:1050300003F0B9FB0A4C2900200003F018FC627849
:10504000237812021A43A3781B041A43E3781B0641
:1050500013430A9A1360F7BD270200202819002085
:10506000311B0020F0B51D0085B0324F0AAB1B7814
:1050700002900E0001920021F02238000B9C039355
:1050800003F0BAF93A001021019803F01FFD2A4BF2
:10509000039A9D715A712A0ADA712A0C2D0E5D72DB
:1050A00000251A72220A9C72DA72220C240E1A73DC
:1050B0005C730196019B2C01E4B20F2B20D81024C5
:1050C000330964425C4334191D01A4B2EDB20133CB
:1050D000002C13D0194F1848164A3900C37303F037
:1050E00079FD00230C9A5019029A5519EA5CF95C73
:1050F0004A40C25401339AB2A242F7D305B0F0BD80
:105100000E4F0D4801350B4A3900EDB2C57303F05F
:1051100061FD22003F1B103202993B5D095D4B404F
:105120000C990B5501349442F6D1019B103B9BB274
:105130000193BFE7401A002037020020411B0020E6
:1051400030B585B00A9D08AC24780295099D00947D
:105150000195FFF787FF05B030BD0000F7B50700E8
:105160000D001E000F4C0192200003F005FB019979
:10517000200003F011FBEAB23900200003F013FB1A
:10518000094D2100280003F072FB6A782B78120287
:105190001A43AB781B041A43EB781B0613433360A6
:1051A000F7BDC04628190020311B0020F7B51D00AF
:1051B00004000E4E0F0001920021F022300003F097
:1051C0001BF932001021019803F080FC3200290005
:1051D000200003F0FFFC0F2F06D92900200010311A
:1051E0001030320003F0F6FCF7BDC046401A002034
:1051F000F0B587B000936B460400224DDA800F00B3
:105200002800F02200219E1D03F0F6F82A0010214C
:10521000200002AC03F05AFC20001022002103F011
:10522000EBF80123237008336B4439001800062281
:1052300003F0D2F80F236B4418003100022203F070
:10524000CBF82A000099200003F0C4FC20001022B3
:10525000002103F0D1F80223237009236B443900A5
:105260001800062203F0B8F80F236B441800310031
:10527000022203F0B1F82A000C99200003F0AAFCE6
:1052800007B0F0BD401A002005384342584170472E
:1052900010B5052803D1080000F00CF910BD00205E
:1052A000FCE710B5052802D1080000F069F910BD2F
:1052B00010B5052802D1080000F076F910BD10B530
:1052C0000B00052804D11100180000F09BF910BD57
:1052D0000020FCE710B5052802D1080000F056FDBB
:1052E00010BD10B5052803D1080000F0A9F910BDC4
:1052F0000020FCE710B50400080011001A00052C7E
:1053000003D1029B00F0B4F910BD0020FCE710B5FA
:105310000400080011001A00052C02D1029B00F0C5
:10532000E1F910BD10B50B00052804D111001800DB
:1053300000F01AFA10BD0020FCE710B504000800C8
:105340001100052C03D11A0000F084FA10BD0020D2
:10535000FCE713B50400080011001A00052C05D164
:10536000059B0093049B00F001FB16BD0020FCE7A9
:1053700010B5052803D1080000F090FB10BD0020F7
:10538000FCE710B5052803D1080000F035FD10BD7D
:105390000020FCE710B5052803D1080000F0A2FBAF
:1053A00010BD0020FCE710B5052803D1080000F06F
:1053B0009DFB10BD0020FCE710B5052803D10800B7
:1053C00000F0B4FB10BD0020FCE710B5052802D1A9
:1053D000080000F0ADFB10BD10B50400080011007E
:1053E0001A00052C03D1029B00F0BEFB10BD0A2061
:1053F000FCE710B5052802D1080000F01FFD10BD24
:1054000010B5040008001100052C03D11A0000F0AB
:105410003DFD10BDD0B2FCE737B5194B04001B6A47
:105420000D0001939847002806D0164B164AE31842
:10543000934202D802232B703EBD144B144AE3184A
:10544000934201D80023F6E7124B134AE318934224
:1054500001D80123EFE7114B114AE3189342E9D930
:10546000104B114AE318934201D80323E3E70F4B93
:10547000E4180F4B9C4201D80423DCE70020DBE753
:10548000B0DA000840AA8FCC7F841E00C02571CC02
:10549000C0C62D00FF5E43CCBF270900A0B038CCAA
:1054A00020A1070040022ECC90D00300606E29CCD2
:1054B000E09304000300007810B50938152847D898
:1054C00003F0D8FC161B0B1F212427292B2E46374F
:1054D00046393B3D3F464641440D012010BD00206A
:1054E0005B785BB2834201D0013BD8B240B2F5E7B2
:1054F0005B78184A5BB2D05CF0E75B78164A5BB227
:10550000F9E71648EAE7FA208000E7E7FA20C0004A
:10551000E4E71348E2E71348E0E78020C001DDE755
:10552000FA211148890002F04FFFFA23DB00C0186E
:10553000D4E70E48D2E70E48D0E70E48CEE7102059
:10554000CCE70D48CAE78320C005C7E70B48C5E78D
:105550000020C3E730D8000838D80008B80B000096
:10556000881300007017000018FCFFFF08E6D33313
:10557000161C0020141C0020541B00209A9909407E
:105580000C220300017810B55143054A40785218A7
:10559000527A0449120189185A6800F01BFD10BDA7
:1055A000541B00204802002070B5012818D00028A4
:1055B00002D002281BD070BD0E4B0F4A18001100FC
:1055C00070C970C070C970C01833183213CA13C3C1
:1055D0000723012209490B80094800F0EDFCEAE7A6
:1055E000074A0649138809880B431380E3E7012221
:1055F0000249F1E7541B0020E4D70008141C0020E6
:10560000161C00200300081F10B5072805D803F05A
:1056100031FC1006101010040414002010BD0020EE
:1056200005221856002100F088FC431E9841C0B2A4
:10563000F4E7002007221856F4E70120EEE7000007
:1056400010B50479002C03D0012C08D0002005E00F
:1056500001220168044800F0AFFC012010BD016880
:1056600022000248F7E7C046161C0020141C002048
:10567000F0B585B00192092608220F0041688256D4
:105680008657196044780500002C03D0002A07D102
:105690001A6000242000019B3A701E7005B0F0BD16
:1056A00043683F2BF5D900265F2BF3D91F210B4010
:1056B000012BEFD103A81D3342700370AB7A8370C6
:1056C000FFF7F8FE42B2B242E4D12C781600002C6B
:1056D000E0D007230249088803430B80D9E7C0467E
:1056E000161C0020F0B587B01C0004911500031CA7
:1056F000072800DD0723174F5EB2BC461649B200EB
:10570000637053580127634504D0144FDB195F427F
:105710005F417F00A770062816DD322000F032FDC1
:105720000F4B0600DB6D0F000593984723000834EC
:105730000C330293009001942B00049A300039003E
:1057400000F02CFD07B0F0BD064B8958985D00F0C5
:10575000FFFCE5E790D0030008D80008E05EF8FF02
:10576000B0DA000828D80008F0B50127324B8DB018
:105770005B680B91C75705000A934468984700235C
:10578000984241D1EB7C002B09D10C2229782B4B7C
:105790004A43D1589B185C68002C00D10C00284B60
:1057A0002000DB571E00244BDB680A939847224BEE
:1057B0009B690A93AB7C072F29D109930123059399
:1057C000AB6800249BB202930523FA2201931D4B80
:1057D00092000093230072431B4908940794069497
:1057E0000494039420000A9EB0476B7C2000002B99
:1057F00020D0164BD95D104B0D315B6DC9B20A93A9
:1058000098470B9B1F70012318000DB0F0BDAA68CC
:10581000012492B20993029200230822079306936F
:1058200005930493039301920093A97808942300AD
:105830003200D7E7064BDDE7B0DA0008541B002042
:1058400028D800088545010050C3000038D800085A
:1058500030D800080123F0B591B00E910F92C356D5
:10586000394A0178D25605000A920C225143374A30
:105870005218517A364A0901521892788178101CD0
:105880004CB252B2A24200DA081C42B20B92314A28
:105890009B009B58304A0127934204D02F4A9B1803
:1058A0005F425F417F00AA6869680B9800F0D6FCF0
:1058B0000C232B4C2A780D905343E2680C92234A18
:1058C00098580C9B98470122E36900240C93AA5630
:1058D000244B0794089306940594072A23D10123A7
:1058E000049304330293FA230A9A9B0053430394CC
:1058F000009301943B001C4A0D9920000C9EB04778
:10590000174E297B736D20000A939847736A297B91
:1059100020000A9398470F9B0B9A186001200E9B5A
:105920001A7011B0F0BD0823012602930A9B03945C
:105930000093220004960C9C01963B000D993000C8
:10594000A0473400DCE7C04628D80008541B0020DC
:105950004802002008D8000890D00300E05EF8FF5D
:10596000B0DA0008B80B0000A8610000F0B505002F
:1059700000200724062791B0059306AB03910492FB
:10598000588001902B79019A934208D92B68019A8B
:1059900007AE9818310000F072FB00283DD109A82D
:1059A0000470AB7907AC4370637806AA8370A37860
:1059B00006A9C370237806320371EB790531437170
:1059C0002B7A83716B7AC3711023037206AB9F1C11
:1059D000E023DB0003822F4BC7604361072303836F
:1059E000230000F067FB0500072807D12A4E02229A
:1059F0000021300002F000FD3B88338028006378EE
:105A0000039A1370A378049A13702378059A13707D
:105A1000169B019A1A7011B0F0BD019B1818C3B201
:105A20000193B28806AB5A80F178002902D13C007C
:105A3000002AA7D04B1E3C00042BA3D90629A1D8CD
:105A40000C2600230724B4460293062915D1664686
:105A50005E4310488659002E05D001269E40012045
:105A6000324392B202900133102BEED1029B002BF5
:105A700000D187E706AB5A8084E7160001201E415B
:105A80000642F0D066465E4302488659002EEAD1AF
:105A90003C00E8E7541B0020161C002037B5104BD3
:105AA00005001B6A4068019398470400601E84410A
:105AB0000020072228560021063400F03EFA002874
:105AC00001D102239C43012005222856002100F029
:105AD00034FA002801D104239C4320003EBDC04677
